:020000040800F2
:100000007807002081010008F9130008F7130008A1
:1000100000000000000000000000000000000000E0
:10002000000000000000000000000000FD130008B8
:100030000000000000000000FB130008FF13000890
:100040009301000893010008930100089301000840
:100050009301000893010008930100089301000830
:100060009301000893010008930100089301000820
:100070009301000893010008930100089301000810
:100080009301000893010008930100089301000800
:1000900093010008930100089301000893010008F0
:1000A0009301000893010008930100080D1B00084C
:1000B00093010008930100089301000893010008D0
:1000C00000F002F800F04CF812A030C808382418EC
:1000D0002D18AC4201D100F043F80FCCA246AB463C
:1000E0000CA730CF2D1B083F3F197C427F1E544484
:1000F0002D090426F441641EAC4201D300F030F80F
:100100000126334200D0FB1A3343984754465D46DC
:10011000DFE70000301D0000501D0000103A02D340
:1001200078C878C1FAD8520701D330C830C101D598
:1001300004680C6070470000704700000023002432
:1001400000250026103A01D378C1FBD8520700D30E
:1001500030C100D50B6070471FB51FBD10B510BD75
:1001600000F04DF81146FFF7F7FF01F0D5FC00F065
:1001700065F803B4FFF7F2FF03BC00F06BF8000072
:100180000748804707480047FEE7FEE7FEE7FEE72F
:10019000FEE7FEE704480549054A064B70470000A4
:1001A00007140008C100000878010020780700202B
:1001B000780300207803002001E004C0091F04290F
:1001C000FBD28B0701D50280801CC90700D00270CA
:1001D000704700290BD0C30702D00270401C491E93
:1001E000022904D3830702D50280801C891EE3E71D
:1001F0000022EEE70022DFE7704770477047754640
:1002000000F024F8AE46050069465346C008C00019
:10021000854618B020B5FFF7BDFF60BCB646002686
:100220000027C0C5C0C5C0C5C0C5C0C5C0C5C0C504
:10023000C0C5403D490849008D46704710B5044689
:10024000C046C0462046FFF794FF10BD00487047E7
:100250002000002001491820ABBEFEE72600020066
:10026000704710B5014620314A78022A12D102683F
:1002700013680E24A343136013680124A34313607F
:10028000C26B006C2346834053604C7000200022F8
:100290000A7010BD04228263012000220A7010BD82
:1002A000B0B5014620314A78022A16D10268136897
:1002B0000E24A343136013680125AB431360C26B84
:1002C000036C2C469C40546000240C704D70416BB4
:1002D000002900D088472046B0BD04218163012059
:1002E000B0BD0000B0B5044600F0D2F80546601C71
:1002F00002D084480078041900F0CAF8401BA042DC
:10030000FAD3B0BDF0B589B001900A68002A00D1D7
:10031000B5E00D465B48019B834201D0052000E01B
:1003200004201721C9065918890A9B0559180091FC
:10033000042900D3009000231C461F4607950AE0BD
:10034000114331607F1C2A681046F8401B1DA41C15
:10035000002800D193E001260396BE403240F1D040
:100360000292069303200146A140C9436A681546DC
:1003700005406B1E012B059213D8049101998868E2
:10038000049B1840079BDB68A34003438B60D006A7
:10039000C00FB8404B68B3430E46049903437360E3
:1003A00006E0032D019E03D10546069B029A20E03C
:1003B000F0680840079B9B68A3400343F360022D4D
:1003C000069B029A15D11C20184004910F218140F0
:1003D000FB089B00F3181D6A8D43079E316981401D
:1003E000294319620499069B7068019E03250590B4
:1003F0000540A540306808402843306005988003D8
:10040000800F079D9ED04A490868039D28430860D5
:100410000868284008900C2018400F2181400323D1
:100420003D469D43089B194EAB598B430099814033
:100430001943A951079D144EB1686868C3020BD5D2
:100440001143B160F16883020BD49143F16071688C
:1004500083030BD491430AE09143B160F1688302B6
:10046000F3D51143F16071688303F3D51143069B03
:1004700071603168C00300D562E7914361E709B05C
:10048000F0BDC046001000480004014008000140D3
:10049000054800687047C0461A48007802490A6853
:1004A000101808607047C0467001002080B5DD4814
:1004B000016810220A430260032000F005F800F0F2
:1004C00023F8002080BDC04670B504467D20C000E2
:1004D0000C4E317801F096FB0146DA48006801F0D5
:1004E00091FB00F03BFC0125032C08D8002806D125
:1004F0000025E84321462A4600F028F87460284683
:1005000070BDC0460000002082B009480168012289
:10051000114301600168114001910199110742687E
:100520000A434260406808400090009802B070475B
:1005300018100240002805D41F21084001218140E5
:10054000014801607047C04600E100E0002805D482
:100550000322034693430A4A9A1803E00C220240FE
:10056000064BD2188007C00E8901C9B28140FF2313
:1005700083401068984308431060704714ED00E012
:1005800000E400E0F0B585B004468078C0074C4B2D
:100590004FD00120039001071A1F106808400290F5
:1005A00006D1106808431060106808400490049851
:1005B00000920191434E3068C00513D4039807029E
:1005C000306838433060FFF763FF054630683842D3
:1005D00008D1FFF75DFF401B6428F7D903252846A3
:1005E00005B0F0BD03252802354B1968014012D033
:1005F0006268024091420ED00398000419681A689C
:1006000002431A601A6882431A6008462E4A104054
:100610001860C80745D118682B4908406168014334
:1006200019600298002804D1009A10680199884343
:1006300010602068C10709D181070FD4810616D444
:1006400081031CD400254005C9D521E01969032286
:100650009143A2680A431A618107EFD50321090477
:100660001A698A43E168114319618106E8D519695D
:100670001022914322690A431A618103E2D5196964
:1006800080229143A2690A431A6100254005A6D53C
:10069000186940218843616901431961284605B002
:1006A000F0BDFFF7F5FE06465F4F054B1868800763
:1006B000B1D4FFF7EDFE801BB842F6D98FE7C046F4
:1006C0002010024000700040FFFCFFFFF0B581B039
:1006D000002846D00446534A1368012003408B4249
:1006E00008D213680126B3430B43136012683240EB
:1006F0008A4237D1009121688A07694B10D54A0791
:1007000006D5072212021B681343654A1360644B27
:100710001A68F0239A43A3681343614A1360604B3D
:10072000C90722D13F49086801263040009A90420B
:1007300005D90868B04308600868C00712D120785E
:10074000400706D50720000219688143E068084386
:1007500018601A681007810F5248022912D2044605
:1007600050E00126304601B0F0BD616803290DD08C
:100770001A1F02290FD0012912D1126892030646CE
:10078000F0D511E0032926D1474C3BE01A6B9203C8
:100790000646E7D508E0126892010646E2D503E076
:1007A000126892070646DDD518680326B043084351
:1007B0001860FFF76DFE07461B4D394B18680C217A
:1007C0000140606880008142ACD0FFF761FEC01B31
:1007D000A842F2D9C6E70321CB033149896A0F2425
:1007E0000C403249095D94021A40240F304D2C5DB3
:1007F0009A4202D033049A4200E02B4801F002FAF8
:100800004443274B18680006000F0849085CC440A1
:100810000C4804600320FFF757FE0026304601B065
:10082000F0BDC0460020024088130000FA1D0008F9
:10083000044800681A4909684905490F024A515C91
:10084000C8407047080000200A1E0008B0B51449CF
:100850000A681007830F1348022B00D2B0BD032B88
:1008600001D11148B0BD0323DB03896A0F240C407A
:100870000E49095D94021A40240F0D4D2C5D9A42D9
:1008800007D001231B049A4201F0BCF944432046DF
:10089000B0BD054801F0B6F944432046B0BDC0469E
:1008A0000410024000127A00006CDC02341E0008C2
:1008B000241E0008F0B587B004460120002C00D1AA
:1008C00045E204902078C007F94E05940CD0716879
:1008D0000C200140042900D090E03068800303D54B
:1008E0006068002800D120E12078800721D5706859
:1008F0000007800F0ED070680C210140082900D03D
:100900009DE00320C003716801400120C0038142C3
:1009100000D094E030688007059C03D5E06801288A
:1009200000D002E13068F82188432169C900014301
:100930003160059C2078000724D42078400737D404
:100940002078C00600D4D3E005984069411D00D14D
:10095000C2E0012800D030E1706B042101437163D3
:10096000706B012101437163FFF792FD0546706BC7
:10097000800700D5B4E0FFF78BFD411B032002295F
:10098000F5D9E4E1706AE169002900D181E0012133
:1009900008437062FFF77CFD0546706A8007CCD47F
:1009A000FFF776FD401B0228F7D9032007B0F0BD02
:1009B000012003900107F0690840029006D1F06918
:1009C0000843F061F0690840069006980191E14FF4
:1009D0003868C0054AD40398040238682043386058
:1009E000FFF756FD0546386820423FD1FFF750FD1E
:1009F000401B6428F7D9032007B0F0BD716801409F
:100A0000082908D10320C0037168014001200004B7
:100A1000814200D161E7616801204704002900D1CB
:100A200017E1052900D12BE1012900D12CE10104B6
:100A300032688A43326081043068884327E1306835
:100A4000059CE168002936D0012108433060FFF79A
:100A50001FFD05463068800700D563E7FFF718FDE6
:100A6000401B0228F6D9032007B0F0BD0598806826
:100A7000002800D1B6E0052800D1C9E0012800D146
:100A8000CAE0306A039988433062306A042188439F
:100A9000C5E0012188437062FFF7FAFC0546706AE1
:100AA000800700D449E7FFF7F3FC401B0228F6D982
:100AB000032007B0F0BD012188433060FFF7E8FC58
:100AC00005463068800700D433E7FFF7E1FC411B9F
:100AD00003200229F5D93AE1706B04218843706341
:100AE000706BF821884305998969C90001437163D6
:100AF0000598007880060BD571680C2001400C2900
:100B000039D1706B800303D50598006A01280CD198
:100B10000598446A002C00D1E1E070680C21014086
:100B2000082905D1012C00D0C4E0049807B0F0BD1D
:100B30000120020631680492914331604706FFF7B5
:100B4000A7FC0546022C0BD1049C3068384200D12A
:100B5000DEE0FFF79DFC411B03200229F5D9F6E0FA
:100B60003068384200D1BAE0FFF792FC411B032005
:100B70000229F5D9EBE071680140082905D103206D
:100B8000C003716801408142BBD0706B0599096A4E
:100B9000002900D1A9E001210A04104370634C042C
:100BA000FFF776FC0546706B2042B1D1FFF770FC71
:100BB000411B03200229F6D9C9E0706B04210143CF
:100BC0007163706B012188437063FFF761FC054618
:100BD000706B80078CD5FFF75BFC411B032002295B
:100BE000F6D9B4E0306A039988433062306A042150
:100BF00088433062584CFFF74BFC0546306A80074B
:100C00001DD5FFF745FC411B0320A142F6D99EE00C
:100C1000306A042101433162306A0399084330622B
:100C20004D4CFFF735FC0546306A800707D4FFF7C7
:100C30002FFC401BA042F7D9032007B0F0BD02985B
:100C40000028059C00D07BE6F06901998843F0619B
:100C500076E6010432688A43326080043168814359
:100C60003160FFF715FC0546059C3068384200D11D
:100C70003AE6FFF70DFC411B03206429F5D966E035
:100C8000810432680A4332600104306808433060EE
:100C9000FFF7FEFB05463068384200D024E6FFF738
:100CA000F7FB401B6428F6D9032007B0F0BDC0460F
:100CB000001002400320C20370680240F16A059CE4
:100CC000A36A9A42049D0DD10F221140236B9942D1
:100CD00008D191040840E16A8842284637D10020B3
:100CE00007B0F0BD284607B0F0BD01210A049043CB
:100CF00070634C04FFF7CCFB0546706B204200D1BB
:100D000006E7FFF7C5FB411B03200229F5D91EE0CA
:100D1000F06A0F218843059A116B0143F1627B2031
:100D2000C00371688143D06A0843916A01437160CE
:100D3000306820433060FFF7ABFB04463068384230
:100D4000CDD1FFF7A5FB011B03200229F6D907B07F
:100D5000F0BDC0460070004088130000401E010E28
:100D600001D0012070470749074A506007480368CF
:100D70000B4003218907591801600020906007216A
:100D800011607047FFFFFF0010E000E020ED00E081
:100D90007047704770470000F0B589B00368D969A3
:100DA0001D6820220895049215406C426C41012771
:100DB000FA0216462F3607910E40203E711E8E41D4
:100DC00026439E685DD002950393059706900546DD
:100DD000583501920F32079F1742089807D0E4490F
:100DE0000140012334461C40611800D099E02B4695
:100DF0003D4610220146029211404F424F41069853
:100E0000016E012905980446039A41D0E906074678
:100E100042D4002F43D0012399050E4074427441FF
:100E2000E902064600D52646002E00D187E0802143
:100E3000089A11404E424E4129060446069800D5B4
:100E40003446002C00D186E14026324054425441C1
:100E5000690600D505940599002900D004E1EFF357
:100E6000108183F3108802681368B343136081F321
:100E700010880021C1660499C16700F0BBFA09B06F
:100E8000F0BD816E002900D1EEE0884709B0F0BDC9
:100E90003C46E9060746BCD52746002FBBD1029841
:100EA00010629068400651D41D46588819885A88A7
:100EB000002A069B00D1D7E0814200D1D4E0EFF3B5
:100EC0001084012282F31088089509256D011E689F
:100ED0003768AF43376084F31088EFF3108482F3F0
:100EE00010881D68AE689643AE6084F31088049C39
:100EF000089DAC6200249C661C66EFF3108482F3AC
:100F000010881A681568029EB543156084F310882E
:100F100002225A66081A81B21846FFF739FF09B053
:100F2000F0BD190201404E424E41F90705980146B5
:100F3000039A5DD100295ED0B90762D469E0190532
:100F400011620698FFF725FF09B0F0BD069E706F8D
:100F5000016849688AB2002A00D185E01D461C88D4
:100F6000A24200D380E069808069202835D0EFF369
:100F70001081012080F310887F4A203234682B468C
:100F800025681540256081F31088EFF3108180F308
:100F90001088326894688443946081F31088EFF37A
:100FA000108180F31088326894684025AC431D4658
:100FB000946081F310880499996200213166EFF3FF
:100FC000108180F3108830680268029B9A430260A7
:100FD00081F31088706FFFF744F90220706628884B
:100FE0006988401A81B23046FFF7D2FE09B0F0BDE1
:100FF00031460029A0D11362E96A1943E962B907B1
:1010000007D5002C05D002211162E96A04260E439F
:10101000EE62790707D5002C05D004211162E96A38
:1010200002260E43EE6202990C436642664139077E
:10103000044600D53446002C04D108211162EC6A24
:101040000C43EC6228469906089D0D406C426C41A9
:1010500001990F42059D069E08D1002D054609D035
:10106000E96A002902990ED109B0F0BD2546002D8C
:101070000546F5D11162E96A04980143E962E96A1B
:1010800000290299F0D0049807404C424C41002FAF
:10109000059800D020461F46002805D1B16E0029D2
:1010A00002D0304688473268E96A28230B409168AD
:1010B00040200140C91806D13046FFF76BFE0020E2
:1010C000E86209B0F0BDEFF3108187F310880922C0
:1010D000520133681C6894431C6081F31088EFF35D
:1010E000108187F31088326893680897BB43936038
:1010F00081F31088316E01290BD1EFF31081089A2A
:1011000082F31088326813681024A343136081F3BC
:1011100010880499A96200213166B1663168896836
:1011200049061FD5EFF31081089A82F310883268C0
:1011300093688343936081F31088706F002811D007
:101140000C494163FFF7ACF800288DD0706F416BFC
:10115000884709B0F0BDC16E002900D184E78847F7
:1011600009B0F0BD3046FFF715FE09B0F0BDC0462E
:1011700020010004A1150008DFFEFFFFB0B5002824
:1011800017D00446C06F002805D1782000212154D3
:10119000204600F02BF82420E06720680168012534
:1011A000A9430160204600F0D1FA002803D0284668
:1011B000B0BD0120B0BD606A002802D0204600F01A
:1011C00023F90920C00221684A6882434A6088687E
:1011D0002A22904388600868012202430A60204660
:1011E00000F07CF905462846B0BD000070B586B019
:1011F00000684749884201D006B070BD0124A003B1
:1012000014494A6802434A604A68024001920198C0
:1012100060040A6802430A6009680140009105946D
:1012200000250395022002900320049040020190C3
:1012300000980920C00601A9FFF764F81B26304674
:1012400021462A46FFF782F93046FFF773F906B0C8
:1012500070BDC04614100240F0B581B08023C35861
:10126000202B12D1012400290CD0002A0AD00123FE
:101270001C038568A5420CD1CC070AD00469002C58
:1012800007D11C46204601B0F0BD0224204601B023
:10129000F0BD0024046605686D682D020AD5EFF3E1
:1012A000108583F310889B06066837681F433760F4
:1012B00085F3108800F0F2FA204601B0F0BD00007E
:1012C00070B500681249884200D070BD114E327866
:1012D00070780D280DD1B41C0F48642521462B468B
:1012E00000F01CF80020307020462946FEF780FFF1
:1012F00008E0B1188870501C3070C0B2642801D367
:1013000000203070711C04480122FFF7A5FF70BD5A
:101310000038014080000020E8000020F0B585B0D2
:101320000546C06F202811D1012000290CD0164697
:10133000002A09D001200703AA68BA4209D1CA07C6
:1013400007D02A69002A04D105B0F0BD022005B0FB
:10135000F0BD019103932C4650340020029060634D
:101360002120E867FFF794F8049066802680A8683B
:10137000B84202D12869002801D0019F02E000276D
:101380000198029003990BE0029A1188184B1940BA
:101390000185921C0292374603996088401E608046
:1013A0006088002810D0009180210026284632460F
:1013B000049B00F0D9FA002814D12868002FE3D04C
:1013C000397801857F1CE7E70091402100222846FB
:1013D000049B00F0C9FA2021E9670028B4D003205B
:1013E00005B0F0BD2020E867032005B0F0BDC04681
:1013F000FF0100007047FEE7FEE77047704780B5C9
:10140000FFF74AF880BD7047B0B5416ACA070CD1F2
:101410008A0714D44A071CD40A0724D4CA062CD439
:101420008A0634D44A063CD44CE0012252040368B4
:101430005C689443826A22435A608A07EAD5012293
:10144000120403685C689443C26A22435A604A07E4
:10145000E2D50122920403685C689443026B224344
:101460005A600A07DAD50122D20303685C68944304
:10147000426B22435A60CA06D2D501221203036886
:101480009C689443826B22439A608A06CAD50122E3
:10149000520303689C689443C26B22439A604A06D5
:1014A00010D501221305026854689C43056C2C4337
:1014B00054609D4206D103235B0554689C43436CF2
:1014C00023435360090607D50121C9040268536804
:1014D0008B43806C18435060B0BD0000F0B583B002
:1014E0000446064678360027F760FEF7D1FF03462C
:1014F0002068016809071FD5284800900120029044
:101500004105002220461D4600F02EFA002811D089
:10151000EFF31080029981F3108821680A68802314
:101520009A430A6080F310882020E0670320377018
:1015300003B0F0BD20682B460068400725D517484A
:1015400000900125A9050022204600F00DFA002890
:101550001BD0EFF3108085F3108809214901226820
:1015600013688B43136080F31088EFF3108085F3CA
:10157000108821688A68AA438A6080F31088202036
:10158000B0600320377003B0F0BD2020E067B0608A
:10159000276667663846377003B0F0BDFFFFFF016E
:1015A00080B5406A0146523100220A8152214252DE
:1015B000FFF7F0FB80BDF0B581B0026801465831FD
:1015C0008B888C6A222C0DD1928C1A40436D1A8024
:1015D0004A88521E4A809A1C42654A88002A07D0CF
:1015E00001B0F0BD906908210143916101B0F0BDE7
:1015F000EFF31083012282F3108809246401056847
:101600002E68A6432E6083F31088EFF3108382F3D5
:1016100010880468A5689543A56083F3108820238B
:101620008B620023436683660468646824020AD5DB
:10163000EFF3108482F31088950606683768AF438D
:10164000376084F31088046E012C15D10366EFF324
:10165000108382F310880468256810229543256062
:1016600083F310880368DC69E40600D51A620988F0
:10167000FFF78EFB01B0F0BDFFF722FE01B0F0BD19
:10168000F0B581B00268014658318B888C6A222CF3
:101690000ED1928C1A40436D1A704A88521E4A80AD
:1016A000426D521C42654A88002A07D001B0F0BD45
:1016B000906908210143916101B0F0BDEFF31083FF
:1016C000012282F310880924640105682E68A6436C
:1016D0002E6083F31088EFF3108382F31088046880
:1016E000A5689543A56083F3108820238B620023AF
:1016F000436683660468646824020AD5EFF31084A5
:1017000082F31088950606683768AF43376084F324
:101710001088046E012C15D10366EFF3108382F359
:1017200010880468256810229543256083F310888B
:101730000368DC69E40600D51A620988FFF728FB14
:1017400001B0F0BDFFF7BCFD01B0F0BDB0B504467F
:1017500000680168474A0A40A16823690B4365692C
:101760001D431543E1690D430560032212034368DD
:101770009343E2681A434260A269236A13430B222F
:101780001202856895431D43856000223A4B9842BA
:1017900006DC3C4B984212D03B4B984216D00CE0F2
:1017A000364B984212D0364A904206D137480068EC
:1017B0008007000F364A125808E0102206E033482E
:1017C0000068800B0C220240314882580125EB034F
:1017D0003048994210D1082A47D8C0467A44127935
:1017E0005200974404421F42194242421E00FFF732
:1017F0001FF8002816D137E0082A36D87A44127923
:1018000052009744043225321F3232322400FFF74F
:101810000FF800281CD127E0FFF718F8002801D1A5
:1018200022E01846400061684A08101800F0EAF902
:101830000246103A18498A4217D201400007400F69
:1018400008430FE0FFF702F8002801D10CE018462A
:1018500061684A08101800F0D5F9014610390E4A9F
:10186000914202D22168C86000250020A066E0668F
:101870002846B0BDF369FFEFFF4B0040004C00402D
:101880000038014000440040004800403010024051
:10189000141E000800127A00F0FF0000B0B55823B3
:1018A000C252416500238366014658314A808268EE
:1018B000002A0BD001242507AA420CD02403A242FF
:1018C0000ED10269002A04D1244A0CE00269002AE0
:1018D00008D1FF2207E00269002A03D03F2202E07C
:1018E0008B8001E07F228A80CB6222228A62EFF322
:1018F0001082012181F3108803689C680C439C606E
:1019000082F3108802690B0384689C4204D1002A88
:1019100014D0134A826603E0114B8366002A0FD06D
:10192000EFF3108281F310880921490100680368F0
:101930000B43036082F310880020B0BD094A826621
:10194000EFF3108281F310880068016820230B43B5
:10195000036082F310880020B0BDC046FF01000084
:1019600081160008B7150008F0B587B015460F4678
:101970000668F1693940C91B4A424A410021AA421E
:1019800025D106930C9C002C24D00B46611C26D13B
:10199000F1693940C91B4A424A41AA4214D1F1694E
:1019A0003940C91B4A424A41AA420DD1F169394026
:1019B000C91B4A424A41AA4206D1F1693940C91BB2
:1019C0004A424A41AA42E3D0184607B0F0BD084651
:1019D00007B0F0BDFEF75CFD032007B0F0BD029339
:1019E00001467831039101210191C90204910590CA
:1019F00006E0C9693940CA1B51425141A9424BD145
:101A0000FEF746FD0699411A0323A142DCD805984A
:101A100001680A685207ECD5CA6912073FD4CA693F
:101A20002646049C22423446E3D01F4604980862AE
:101A3000EFF31082012181F3108809235B010598DF
:101A4000046825689D43256082F31088EFF31082B7
:101A500081F31088059803689C688C439C60059806
:101A600082F31088026E012A0BD1EFF3108281F30A
:101A7000108801680B681024A3430B60059882F35B
:101A800010882021039B99600022026682661A70EA
:101A9000D960384607B0F0BD029807B0F0BD082500
:101AA0000D62EFF31081019880F310880922520132
:101AB000059B1B681C6894431C6081F31088EFF33E
:101AC000108180F31088059A1268936883439360AD
:101AD000059B81F31088196E01290CD1EFF3108159
:101AE000012282F310881A6813681024A34313603C
:101AF000059B81F310882021039A916000211966CB
:101B000099661170D56007B0F0BD000080B5394806
:101B1000FFF742F980BDC04698B0FEF7C7FC0BAD99
:101B2000281D3021FEF766FB0024149410200F902E
:101B300001260E9602200B900694059404940394BB
:101B4000029401942846FEF7B5FE002803D0EFF377
:101B5000108072B6FEE70A94099408940720079053
:101B600007A82146FEF7B2FD002803D0EFF310804E
:101B700072B6FEE7029400966846FEF703FD002861
:101B800003D0EFF3108072B6FEE77104184A1068B4
:101B90000843106017480C2343610461C4608460EB
:101BA000154B03604B23DB01436012688461C46101
:101BB000046244620A400B920B99FFF7DFFA002897
:101BC00003D0EFF3108072B6FEE70C48411C094CBD
:101BD00001222046FFF740FB094D0F2264232046D7
:101BE0002946FFF79BFB7D20C000FEF77BFBF4E757
:101BF00014100240E800002000380140800000205E
:101C00000C00002043088B421AD3002203098B42A8
:101C100079D3030A8B425ED3030B8B4242D3030C6E
:101C20008B4227D30902FF2212BA030C8B4202D344
:101C30001212090203D0030B8B4233D31AE0D3E014
:101C4000411A8041401C704703460B4371D443083E
:101C50008B42F5D3002203098B4254D3030A8B42F3
:101C600039D3030B8B421DD3030C8B4202D3944612
:101C70006EE0090AC30B8B4201D3CB03C01A524159
:101C8000830B8B4201D38B03C01A5241430B8B420F
:101C900001D34B03C01A5241030B8B4201D30B03F8
:101CA000C01A5241C30A8B4201D3CB02C01A52411F
:101CB000830A8B4201D38B02C01A5241430A8B42E2
:101CC00001D34B02C01A5241030A8B4201D30B02CB
:101CD000C01A5241CDD2C3098B4201D3CB01C01AE5
:101CE000524183098B4201D38B01C01A52414309EF
:101CF0008B4201D34B01C01A524103098B4201D3DD
:101D00000B01C01A5241C3088B4201D3CB00C01A49
:101D1000524183088B4201D38B00C01A52414308C1
:101D20008B4201D34B00C01A5241411A524110005C
:101D30007047CA0F00D04942031000D340425340BD
:101D400000229C4603098B422DD3030A8B4212D3F7
:101D50008901FC2212BA030A8B420CD38901921129
:101D60008B4208D3890192118B4204D3890137D069
:101D7000921100E08909C3098B4201D3CB01C01A3B
:101D8000524183098B4201D38B01C01A524143094E
:101D90008B4201D34B01C01A524103098B4201D33C
:101DA0000B01C01A5241C3088B4201D3CB00C01AA9
:101DB000524183088B4201D38B00C01A5241D9D2C1
:101DC00043088B4201D34B00C01A5241411A00D242
:101DD00001465241104663465B1000D340427047B3
:101DE00063465B1000D3404201B50021004201D0A0
:101DF000C9430846C046C04602BD000000000000BE
:101E000000000102030406070809000000000102A7
:101E100003040000000000000400000008000000AF
:101E20000200000002030405060708090A0B0C0D56
:101E30000E0F10100102030405060708090A0B0C17
:101E40000D0E0F10681E000800000020200000008A
:101E50001C010008881E0008200000205807000010
:101E60003C01000800000000010000000400000028
:101E700000127A0048656C6C6F2053544D2D3E451E
:081E800053500A0000000000AD
:04000005080000C12E
:00000001FF
