:020000040800F2
:100000007806002091010008530D0008510D0008EA
:1000100000000000000000000000000000000000E0
:10002000000000000000000000000000570D000864
:100030000000000000000000550D0008590D0008E8
:10004000A3010008A3010008A3010008A301000800
:10005000A3010008A3010008A3010008A3010008F0
:10006000A3010008A3010008A3010008A3010008E0
:10007000A3010008A3010008A3010008A3010008D0
:10008000A3010008A3010008A3010008A3010008C0
:10009000A3010008A3010008A3010008A3010008B0
:1000A000A3010008A3010008A3010008630D0008D4
:1000B000A3010008A3010008A3010008A301000890
:1000C00000F002F800F054F812A030C808382418E4
:1000D0002D18AC4201D100F04BF80FCCA246AB4634
:1000E0000CA730CF2D1B083F3F197C427F1E544484
:1000F0002D090426F441641EAC4201D300F038F807
:100100000126334200D0FB1A3343984754465D46DC
:10011000DFE70000E010000000110000103A02D3F9
:1001200078C878C1FAD8520701D330C830C101D598
:1001300004680C6070470000704700000023002432
:1001400000250026103A01D378C1FBD8520700D30E
:1001500030C100D50B60704710B5642902D100F0A2
:100160007DF810BD002010BD1FB51FBD10B510BD1E
:1001700000F057F91146FFF7F7FF00F0F3FD00F02C
:100180006FF903B4FFF7F2FF03BC00F075F900004C
:100190000748804707480047FEE7FEE7FEE7FEE71F
:1001A000FEE7FEE704480549054A064B7047000094
:1001B000610D0008C10000087800002078060020CA
:1001C00078020020780200200FB41CB5074B06AA65
:1001D0007B4469460090059800F0F7F800206946D6
:1001E00000F006F91CBC08BC04B018471D02000052
:1001F000F8B50E460446002020622046E168884794
:10020000002829D0252802D06268A16820E0E16892
:1002100020460027884705001ED028464138192867
:1002200002D80127FF0220353246204627602946A2
:10023000FFF792FF002808D0012804D0F61DF60829
:10024000F6000836D9E7361DD7E762682846A16868
:100250009047206A401CCFE7206AF8BDF7B500251B
:1002600075291068009914A611D0C046C046002810
:1002700002DA404211A608E0009909688A0701D510
:100280000FA602E0490704D50EA6012501E0C046ED
:10029000C046009F0024243704E000F0AEF830315F
:1002A0003955641C0028F8D12B4632462146009867
:1002B00000F02DF8FEBD0000000000002D00000041
:1002C0002B0000002000000001E004C0091F0429E9
:1002D000FBD28B0701D50280801CC90700D00270B9
:1002E000704700290BD0C30702D00270401C491E82
:1002F000022904D3830702D50280801C891EE3E70C
:100300000022EEE70022DFE7704770477047FFB535
:1003100004460D4681B0243000902168880604D53B
:100320001022E0699143216000E00120A84201DD34
:10033000471B00E000270498A1697A191018081AD1
:10034000A0612078C00602D42046C046C0460026E0
:1003500008E003986268A168805D9047206A401CAD
:10036000761C206204988642F3DB2078C0060AD50A
:100370002046C046C04606E06268A168302090472B
:10038000206A401C206238467F1E0028F4DC07E00B
:1003900000986268A168405D9047206A401C206216
:1003A00028466D1E0028F3DC2046C046C046207853
:1003B000000602D5022005B0F0BD0120FBE70000D9
:1003C00001694A1C02610878704700B58FB002913C
:1003D0000021059105490193794403911146049048
:1003E0006846FFF705FF0FB000BD0000E5FFFFFF07
:1003F0000A681070521C0A60704701468008081A8B
:1004000002091018020A1018020C1018C008820005
:1004100012185200891A01E0401C0A390A29FBD23D
:100420007047754600F024F8AE460500694653460D
:10043000C008C000854618B020B5FFF7B3FE60BC09
:10044000B64600260027C0C5C0C5C0C5C0C5C0C5CA
:10045000C0C5C0C5C0C5403D490849008D4670476C
:1004600010B50446C046C0462046FFF78AFE10BDC0
:10047000004870471000002001491820ABBEFEE77D
:100480002600020070470000F0B589B001900A68AC
:10049000002A00D1B5E00D465B48019B834201D0A4
:1004A000052000E004201721C9065918890A9B0578
:1004B00059180091042900D3009000231C461F46C0
:1004C00007950AE0114331607F1C2A681046F84006
:1004D0001B1DA41C002800D193E001260396BE40FA
:1004E0003240F1D00292069303200146A140C94355
:1004F0006A68154605406B1E012B059213D80491BE
:1005000001998868049B1840079BDB68A34003435C
:100510008B60D006C00FB8404B68B3430E460499B9
:100520000343736006E0032D019E03D10546069B3D
:10053000029A20E0F0680840079B9B68A3400343B1
:10054000F360022D069B029A15D11C2018400491DD
:100550000F218140FB089B00F3181D6A8D43079E05
:1005600031698140294319620499069B7068019E94
:10057000032505900540A5403068084028433060B9
:1005800005988003800F079D9ED04A490868039D07
:10059000284308600868284008900C2018400F2164
:1005A000814003233D469D43089B194EAB598B4325
:1005B000009981401943A951079D144EB16868689C
:1005C000C3020BD51143B160F16883020BD4914390
:1005D000F160716883030BD491430AE09143B160E9
:1005E000F1688302F3D51143F16071688303F3D599
:1005F0001143069B71603168C00300D562E79143E7
:1006000061E709B0F0BDC046001000480004014099
:1006100008000140054800687047C0461A48007845
:1006200002490A68101808607047C046740000202C
:1006300080B58548016810220A430260032000F05B
:1006400005F800F023F8002080BDC04670B50446D0
:100650007D20C0000C4E317800F0ACFC014684488F
:10066000006800F0A7FC00F059FB0125032C08D816
:10067000002806D10025E84321462A4600F01CF850
:100680007460284670BDC0460000002082B0094852
:100690000168012211430160016811400191019933
:1006A000110742680A434260406808400090009881
:1006B00002B0704718100240002805D403220346F8
:1006C00093430A4A9A1803E00C220240064BD218C0
:1006D0008007C00E8901C9B28140FF2383401068A2
:1006E000984308431060704714ED00E000E400E018
:1006F000F0B581B0002846D00446534A1368012063
:1007000003408B4208D213680126B3430B431360A6
:10071000126832408A4237D1009121688A074B4BD8
:1007200010D54A0706D5072212021B681343474A11
:100730001360464B1A68F0239A43A3681343434A55
:100740001360424BC90722D13F4908680126304057
:10075000009A904205D90868B04308600868C0074D
:1007600012D12078400706D507200002196881437E
:10077000E068084318601A681007810F354802299D
:1007800012D2044650E00126304601B0F0BD616847
:1007900003290DD01A1F02290FD0012912D1126886
:1007A00092030646F0D511E0032926D12A4C3BE0FE
:1007B0001A6B92030646E7D508E0126892010646D6
:1007C000E2D503E0126892070646DDD518680326D5
:1007D000B04308431860FFF71DFF07461C4D1B4B35
:1007E00018680C210140606880008142ACD0FFF79E
:1007F00011FFC01BA842F2D9C6E70321CB0313495E
:10080000896A0F240C401549095D94021A40240F8F
:10081000134D2C5D9A4202D033049A4200E00E48F8
:1008200000F0C8FB4443094B18680006000F0D494F
:10083000085CC4400E4804600320FFF707FF002651
:10084000304601B0F0BDC046002002400410024016
:100850008813000000127A00006CDC02E01100082E
:10086000D0110008C0110008014800687047C04658
:1008700008000020F0B587B004460120002C00D10C
:1008800045E204902078C007F94E05940CD07168B9
:100890000C200140042900D090E03068800303D58B
:1008A0006068002800D120E12078800721D5706899
:1008B0000007800F0ED070680C210140082900D07D
:1008C0009DE00320C003716801400120C003814204
:1008D00000D094E030688007059C03D5E0680128CB
:1008E00000D002E13068F82188432169C900014342
:1008F0003160059C2078000724D42078400737D445
:100900002078C00600D4D3E005984069411D00D18D
:10091000C2E0012800D030E1706B04210143716313
:10092000706B012101437163FFF774FE0546706B24
:10093000800700D5B4E0FFF76DFE411B03200229BC
:10094000F5D9E4E1706AE169002900D181E0012173
:1009500008437062FFF75EFE0546706A8007CCD4DC
:10096000FFF758FE401B0228F7D9032007B0F0BD5F
:10097000012003900107F0690840029006D1F06958
:100980000843F061F0690840069006980191E14F34
:100990003868C0054AD40398040238682043386098
:1009A000FFF738FE0546386820423FD1FFF732FE98
:1009B000401B6428F7D9032007B0F0BD71680140DF
:1009C000082908D10320C0037168014001200004F8
:1009D000814200D161E7616801204704002900D10C
:1009E00017E1052900D12BE1012900D12CE10104F7
:1009F00032688A43326081043068884327E1306876
:100A0000059CE168002936D0012108433060FFF7DA
:100A100001FE05463068800700D563E7FFF7FAFD61
:100A2000401B0228F6D9032007B0F0BD0598806866
:100A3000002800D1B6E0052800D1C9E0012800D186
:100A4000CAE0306A039988433062306A04218843DF
:100A5000C5E0012188437062FFF7DCFD0546706A3E
:100A6000800700D449E7FFF7D5FD401B0228F6D9DF
:100A7000032007B0F0BD012188433060FFF7CAFDB5
:100A800005463068800700D433E7FFF7C3FD411BFC
:100A900003200229F5D93AE1706B04218843706381
:100AA000706BF821884305998969C9000143716316
:100AB0000598007880060BD571680C2001400C2940
:100AC00039D1706B800303D50598006A01280CD1D9
:100AD0000598446A002C00D1E1E070680C210140C7
:100AE000082905D1012C00D0C4E0049807B0F0BD5E
:100AF0000120020631680492914331604706FFF7F6
:100B000089FD0546022C0BD1049C3068384200D187
:100B1000DEE0FFF77FFD411B03200229F5D9F6E057
:100B20003068384200D1BAE0FFF774FD411B032062
:100B30000229F5D9EBE071680140082905D10320AD
:100B4000C003716801408142BBD0706B0599096A8E
:100B5000002900D1A9E001210A04104370634C046C
:100B6000FFF758FD0546706B2042B1D1FFF752FDEB
:100B7000411B03200229F6D9C9E0706B042101430F
:100B80007163706B012188437063FFF743FD054675
:100B9000706B80078CD5FFF73DFD411B03200229B8
:100BA000F6D9B4E0306A039988433062306A042190
:100BB00088433062584CFFF72DFD0546306A8007A8
:100BC0001DD5FFF727FD411B0320A142F6D99EE06A
:100BD000306A042101433162306A0399084330626C
:100BE0004D4CFFF717FD0546306A800707D4FFF725
:100BF00011FD401BA042F7D9032007B0F0BD0298B9
:100C00000028059C00D07BE6F06901998843F061DB
:100C100076E6010432688A43326080043168814399
:100C20003160FFF7F7FC0546059C3068384200D17B
:100C30003AE6FFF7EFFC411B03206429F5D966E093
:100C4000810432680A43326001043068084330602E
:100C5000FFF7E0FC05463068384200D024E6FFF795
:100C6000D9FC401B6428F6D9032007B0F0BDC0466C
:100C7000001002400320C20370680240F16A059C24
:100C8000A36A9A42049D0DD10F221140236B994211
:100C900008D191040840E16A8842284637D10020F3
:100CA00007B0F0BD284607B0F0BD01210A0490430B
:100CB00070634C04FFF7AEFC0546706B204200D118
:100CC00006E7FFF7A7FC411B03200229F5D91EE028
:100CD000F06A0F218843059A116B0143F1627B2072
:100CE000C00371688143D06A0843916A014371600F
:100CF000306820433060FFF78DFC0446306838428E
:100D0000CDD1FFF787FC011B03200229F6D907B0DC
:100D1000F0BDC0460070004088130000401E010E68
:100D200001D0012070470749074A5060074803680F
:100D30000B400321890759180160002090600721AA
:100D400011607047FFFFFF0010E000E020ED00E0C1
:100D5000FEE7FEE77047704780B5FFF75FFC80BD98
:100D60007047704796B0FFF763FC09AD281D30212E
:100D7000FFF7C8FA00271297102003900D90012664
:100D80000C96022409942846FFF774FD002803D02E
:100D9000EFF3108072B6FEE7029408970797069764
:100DA0000720059005A83946FFF7A2FC002803D0CC
:100DB000EFF3108072B6FEE704977004714A116871
:100DC00001431160F0041168014311607002516821
:100DD0000143516070079168014391606A4809A915
:100DE0000A4628C828C2A8C8A8C23746674D284660
:100DF000FFF74AFB2868032108432860E86801914F
:100E00008843E860624E70680399084370607068B8
:100E100008218843706078037168014371607168CC
:100E20005C4801407160BD02316A2943316231681A
:100E3000C90703D03168029A114331603168C9078C
:100E400008D03168C90705D03168C90702D03168B8
:100E5000C907F3D17168B9437160F90732680A4371
:100E600032603168002908D53168002905D531681C
:100E7000002902D531680029F3D4314608390A68BF
:100E8000D20702D00A683A430A6032683A433260B5
:100E90000A68D20708D10A68D20705D10A68D207C2
:100EA00002D10A68D207F3D0316804220A433260C3
:100EB000B904344B9A680A439A601A680A431A6064
:100EC0000522530534490C681C430C6012050B685D
:100ED00093430B604A6802404A6088682F4A10407A
:100EE0008860C8681040C860112080024A6A0243C6
:100EF0004A62FFF7B9FCE121490200F05BF8284C97
:100F0000E06020682749014021602068A8432060F4
:100F1000019A1003616881436160100222490A68E6
:100F200082430A6020680C21014321602068384315
:100F3000206020682021014321601D4D00E03E46D5
:100F40003746B26B1948026009AE30462946FFF7B2
:100F50003BF930780028F2D0049906E0C0B2208531
:100F6000491C09A8405C0028E9D0E2691206F5D4C2
:100F7000E2691206F2D4E2691206EFD4E2691206BF
:100F8000F3D5EBE714100240AC110008000800484C
:100F900008240140FFF3FFFF00040048FFFF0FFF9C
:100FA00000480040FFEFFFEF0844004070000020C1
:100FB000F011000843088B421AD3002203098B4228
:100FC00079D3030A8B425ED3030B8B4242D3030CCB
:100FD0008B4227D30902FF2212BA030C8B4202D3A1
:100FE0001212090203D0030B8B4233D31AE0D3E071
:100FF000411A8041401C704703460B4371D443089B
:101000008B42F5D3002203098B4254D3030A8B424F
:1010100039D3030B8B421DD3030C8B4202D394466E
:101020006EE0090AC30B8B4201D3CB03C01A5241B5
:10103000830B8B4201D38B03C01A5241430B8B426B
:1010400001D34B03C01A5241030B8B4201D30B0354
:10105000C01A5241C30A8B4201D3CB02C01A52417B
:10106000830A8B4201D38B02C01A5241430A8B423E
:1010700001D34B02C01A5241030A8B4201D30B0227
:10108000C01A5241CDD2C3098B4201D3CB01C01A41
:10109000524183098B4201D38B01C01A524143094B
:1010A0008B4201D34B01C01A524103098B4201D339
:1010B0000B01C01A5241C3088B4201D3CB00C01AA6
:1010C000524183088B4201D38B00C01A524143081E
:1010D0008B4201D34B00C01A5241411A52411000B9
:1010E0007047CA0F00D04942031000D3404253401A
:1010F00000229C4603098B422DD3030A8B4212D354
:101100008901FC2212BA030A8B420CD38901921185
:101110008B4208D3890192118B4204D3890137D0C5
:10112000921100E08909C3098B4201D3CB01C01A97
:10113000524183098B4201D38B01C01A52414309AA
:101140008B4201D34B01C01A524103098B4201D398
:101150000B01C01A5241C3088B4201D3CB00C01A05
:10116000524183088B4201D38B00C01A5241D9D21D
:1011700043088B4201D34B00C01A5241411A00D29E
:1011800001465241104663465B1000D3404270470F
:1011900063465B1000D3404201B50021004201D0FC
:1011A000C9430846C046C04602BD0000C003000057
:1011B000010000000000000000000000000000002E
:1011C00000000000000000000102030406070809F7
:1011D00002030405060708090A0B0C0D0E0F101078
:1011E0000102030405060708090A0B0C0D0E0F1077
:1011F0002564000018120008000000201000000004
:101200001C010008281200081000002068060000D9
:101210003C01000800000000010000000400000084
:0812200000127A00000000003A
:04000005080000C12E
:00000001FF
