:020000040800F2
:100000004007002091010008531200085112000817
:1000100000000000000000000000000000000000E0
:10002000000000000000000000000000571200085F
:1000300000000000000000005512000859120008DE
:10004000A3010008A3010008A3010008A301000800
:10005000A3010008A3010008A3010008A3010008F0
:10006000A3010008A3010008A3010008A3010008E0
:10007000A3010008A3010008A3010008A3010008D0
:10008000A3010008A3010008A3010008A3010008C0
:10009000A3010008A3010008A3010008A3010008B0
:1000A000A3010008A3010008A3010008EB16000843
:1000B000A3010008A3010008A3010008A301000890
:1000C00000F002F800F054F812A030C808382418E4
:1000D0002D18AC4201D100F04BF80FCCA246AB4634
:1000E0000CA730CF2D1B083F3F197C427F1E544484
:1000F0002D090426F441641EAC4201D300F038F807
:100100000126334200D0FB1A3343984754465D46DC
:10011000DFE700002C1A00004C1A0000103A02D34E
:1001200078C878C1FAD8520701D330C830C101D598
:1001300004680C6070470000704700000023002432
:1001400000250026103A01D378C1FBD8520700D30E
:1001500030C100D50B60704710B5642902D100F0A2
:100160007DF810BD002010BD1FB51FBD10B510BD1E
:1001700000F057F91146FFF7F7FF01F0B7FA00F06A
:100180006FF903B4FFF7F2FF03BC00F075F900004C
:100190000748804707480047FEE7FEE7FEE7FEE71F
:1001A000FEE7FEE704480549054A064B7047000094
:1001B00061120008C1000008400100204007002033
:1001C00040030020400300200FB41CB5074B06AAD3
:1001D0007B4469460090059800F0F7F800206946D6
:1001E00000F006F91CBC08BC04B018471D02000052
:1001F000F8B50E460446002020622046E168884794
:10020000002829D0252802D06268A16820E0E16892
:1002100020460027884705001ED028464138192867
:1002200002D80127FF0220353246204627602946A2
:10023000FFF792FF002808D0012804D0F61DF60829
:10024000F6000836D9E7361DD7E762682846A16868
:100250009047206A401CCFE7206AF8BDF7B500251B
:1002600075291068009914A611D0C046C046002810
:1002700002DA404211A608E0009909688A0701D510
:100280000FA602E0490704D50EA6012501E0C046ED
:10029000C046009F0024243704E000F0AEF830315F
:1002A0003955641C0028F8D12B4632462146009867
:1002B00000F02DF8FEBD0000000000002D00000041
:1002C0002B0000002000000001E004C0091F0429E9
:1002D000FBD28B0701D50280801CC90700D00270B9
:1002E000704700290BD0C30702D00270401C491E82
:1002F000022904D3830702D50280801C891EE3E70C
:100300000022EEE70022DFE7704770477047FFB535
:1003100004460D4681B0243000902168880604D53B
:100320001022E0699143216000E00120A84201DD34
:10033000471B00E000270498A1697A191018081AD1
:10034000A0612078C00602D42046C046C0460026E0
:1003500008E003986268A168805D9047206A401CAD
:10036000761C206204988642F3DB2078C0060AD50A
:100370002046C046C04606E06268A168302090472B
:10038000206A401C206238467F1E0028F4DC07E00B
:1003900000986268A168405D9047206A401C206216
:1003A00028466D1E0028F3DC2046C046C046207853
:1003B000000602D5022005B0F0BD0120FBE70000D9
:1003C00001694A1C02610878704700B58FB002913C
:1003D0000021059105490193794403911146049048
:1003E0006846FFF705FF0FB000BD0000E5FFFFFF07
:1003F0000A681070521C0A60704701468008081A8B
:1004000002091018020A1018020C1018C008820005
:1004100012185200891A01E0401C0A390A29FBD23D
:100420007047754600F024F8AE460500694653460D
:10043000C008C000854618B020B5FFF7B3FE60BC09
:10044000B64600260027C0C5C0C5C0C5C0C5C0C5CA
:10045000C0C5C0C5C0C5403D490849008D4670476C
:1004600010B50446C046C0462046FFF78AFE10BDC0
:10047000004870471000002001491820ABBEFEE77D
:10048000260002007047000070B582B005460024C7
:1004900001940068816803220A40012A05D101689D
:1004A000C9070ED1C16809040BD48168214A1142E1
:1004B0000AD0A86B10210143A963E86B01242043F3
:1004C000E863204602B070BD816801220A43826061
:1004D00066480068664901F007FA01900198002813
:1004E00017D00198401E01900198002811D0019862
:1004F000401E0190019800280BD00198401E0190E9
:100500000198002805D00198401E0190019800280C
:10051000E7D100F053FA064628680068C007D0D13A
:1005200000F04CFA811B28680329F6D30168C9073B
:10053000F3D1BEE717000080F0B583B0002302932B
:100540003422825C012A02D1022003B0F0BD019363
:10055000074634370668B268520716D400970D680C
:100560004B6801242746AF403E4A934214D1B06AFB
:10057000B843B062284610380228019E3046009FDA
:100580005BD8112D1AD03C4819E0816B20220A4318
:1005900082630120019E50E0B26A3A43B262C06AAF
:1005A000421E072A4CD2284610380228019E3046A7
:1005B000009F42D8112D0DD020060CE02D48102DA3
:1005C00000D12E4828490A6802400A6030463E7031
:1005D00003B0F0BDA005102D00D1E00522490A6846
:1005E00002430A60102D304627D120480068204978
:1005F00001F07AF90A21414302910298002830461D
:100600001BD00298401E02900298002811D0029838
:10061000401E0290029800280BD00298401E0290C3
:100620000298002805D00298401E029002980028E7
:10063000E7D130463E7003B0F0BD3E7003B0F0BD70
:1006400022079042AFD07269072002408968914228
:10065000A9D0726982437261014070690843706178
:10066000A1E7C04601100000082701400800002053
:1006700040420F00FFFFBFFFFFFFFFFEFFFF7FFFB6
:10068000F0B581B00125002862D004460646243624
:10069000806B002803D0A06BC00609D554E0002071
:1006A0003074E063204600F093F8A06BC0064BD492
:1006B00020688168490747D481214900A26B8A4399
:1006C000911CA163826803210A40012A05D10268B6
:1006D000D2070ED1C26812040BD4C26818239A4301
:1006E000A3681343C360890702698A4361681143A1
:1006F0000161C168344A0A40C260A16A491E4A1EAB
:1007000091410903227E9203637EDB031343A27EA1
:1007100055031D43E36827692B430B43B91E4D4224
:100720004D41AD001D43317849002943E37E012B43
:1007300014D1002A0FD0A26B20231343A363E26BD2
:1007400001231343E36309E0A06B10210143A1637C
:10075000284601B0F0BD012212041143E269FF23D3
:10076000C2339A4202D0236A19431143C2680A4332
:10077000C260E26A531E072B21D243690725AB43AF
:1007800043612A40436913434361C0680F4A0240F2
:100790008A4207D10025E563A06B012101430220B5
:1007A0008143D4E7A06B1021014302208143A16360
:1007B000E06B01252843E063284601B0F0BD01232A
:1007C0001B079A42D9D0E0E71902FEFFE7FF3F83FB
:1007D0007047000070B50446006880680225400735
:1007E0000FD43420205C01280BD026463436012556
:1007F0003570607E012806D02046FFF745FE0028B0
:1008000001D0284670BDA06B0849014001200002BC
:100810000818A0630025E56320681C21016035707D
:10082000816804220A438260284670BDFEF0FFFF03
:10083000F0B589B001900A68002A00D1B5E00D46F4
:100840005B48019B834201D0052000E00420172172
:10085000C9065918890A9B0559180091042900D323
:10086000009000231C461F4607950AE011433160A3
:100870007F1C2A681046F8401B1DA41C002800D1CC
:1008800093E001260396BE403240F1D002920693D7
:1008900003200146A140C9436A68154605406B1E06
:1008A000012B059213D8049101998868049B184084
:1008B000079BDB68A34003438B60D006C00FB840A2
:1008C0004B68B3430E4604990343736006E0032D5F
:1008D000019E03D10546069B029A20E0F06808407D
:1008E000079B9B68A3400343F360022D069B029A7B
:1008F00015D11C20184004910F218140FB089B005A
:10090000F3181D6A8D43079E31698140294319629E
:100910000499069B7068019E032505900540A5403B
:10092000306808402843306005988003800F079D99
:100930009ED04A490868039D2843086008682840FB
:1009400008900C2018400F21814003233D469D4311
:10095000089B194EAB598B43009981401943A9510B
:10096000079D144EB1686868C3020BD51143B1608E
:10097000F16883020BD49143F160716883030BD457
:1009800091430AE09143B160F1688302F3D51143CA
:10099000F16071688303F3D51143069B7160316880
:1009A000C00300D562E7914361E709B0F0BDC046DE
:1009B000001000480004014008000140054800689C
:1009C0007047C0461A48007802490A681018086043
:1009D0007047C0463C01002080B58B48016810225A
:1009E0000A430260032000F005F800F023F800201D
:1009F00080BDC04670B504467D20C0000C4E3178E5
:100A000000F072FF01468848006800F06DFF00F0BA
:100A100097FB0125032C08D8002806D10025E843C0
:100A200021462A4600F028F87460284670BDC0466A
:100A30000000002082B009480168012211430160D2
:100A40000168114001910199110742680A4342600F
:100A5000406808400090009802B0704718100240AB
:100A6000002805D41F210840012181400148016070
:100A70007047C04600E100E0002805D40322034689
:100A800093430A4A9A1803E00C220240064BD218FC
:100A90008007C00E8901C9B28140FF2383401068DE
:100AA000984308431060704714ED00E000E400E054
:100AB000F0B581B0002846D00446534A136801209F
:100AC00003408B4208D213680126B3430B431360E3
:100AD000126832408A4237D1009121688A07694BF7
:100AE00010D54A0706D5072212021B681343654A30
:100AF0001360644B1A68F0239A43A3681343614A56
:100B00001360604BC90722D13F4908680126304075
:100B1000009A904205D90868B04308600868C00789
:100B200012D12078400706D50720000219688143BA
:100B3000E068084318601A681007810F52480229BC
:100B400012D2044650E00126304601B0F0BD616883
:100B500003290DD01A1F02290FD0012912D11268C2
:100B600092030646F0D511E0032926D1474C3BE01D
:100B70001A6B92030646E7D508E012689201064612
:100B8000E2D503E0126892070646DDD51868032611
:100B9000B04308431860FFF711FF07461B4D394B60
:100BA00018680C210140606880008142ACD0FFF7DA
:100BB00005FFC01BA842F2D9C6E70321CB03314988
:100BC000896A0F240C403249095D94021A40240FAF
:100BD000304D2C5D9A4202D033049A4200E02B48FB
:100BE00000F082FE4443274B18680006000F0849B6
:100BF000085CC4400C4804600320FFF7FBFE00269D
:100C0000304601B0F0BDC04600200240881300000D
:100C1000F41A0008044800681A4909684905490F90
:100C2000024A515CC840704708000020041B0008BD
:100C3000B0B514490A681007830F1348022B00D27D
:100C4000B0BD032B01D11148B0BD0323DB03896A7A
:100C50000F240C400E49095D94021A40240F0D4DDB
:100C60002C5D9A4207D001231B049A4200F03CFEFF
:100C700044432046B0BD054800F036FE44432046BC
:100C8000B0BDC0460410024000127A00006CDC02C5
:100C90002C1B00081C1B0008F0B587B0044601207F
:100CA000002C00D145E204902078C007F94E05944D
:100CB0000CD071680C200140042900D090E030680D
:100CC000800303D56068002800D120E120788007E8
:100CD00021D570680007800F0ED070680C2101408C
:100CE000082900D09DE00320C00371680140012065
:100CF000C003814200D094E030688007059C03D592
:100D0000E068012800D002E13068F82188432169B9
:100D1000C90001433160059C2078000724D4207865
:100D2000400737D42078C00600D4D3E00598406946
:100D3000411D00D1C2E0012800D030E1706B0421D8
:100D400001437163706B012101437163FFF736FE4C
:100D50000546706B800700D5B4E0FFF72FFE411BFE
:100D600003200229F5D9E4E1706AE169002900D184
:100D700081E0012108437062FFF720FE0546706A9A
:100D80008007CCD4FFF71AFE401B0228F7D90320B6
:100D900007B0F0BD012003900107F0690840029000
:100DA00006D1F0690843F061F069084006900698A2
:100DB0000191E14F3868C0054AD4039804023868AD
:100DC00020433860FFF7FAFD0546386820423FD1DE
:100DD000FFF7F4FD401B6428F7D9032007B0F0BDEE
:100DE00071680140082908D10320C00371680140DF
:100DF00001200004814200D161E7616801204704BD
:100E0000002900D117E1052900D12BE1012900D1EA
:100E10002CE1010432688A433260810430688843DF
:100E200027E13068059CE168002936D0012108439C
:100E30003060FFF7C3FD05463068800700D563E7E3
:100E4000FFF7BCFD401B0228F6D9032007B0F0BD18
:100E500005988068002800D1B6E0052800D1C9E0D7
:100E6000012800D1CAE0306A039988433062306AB1
:100E700004218843C5E0012188437062FFF79EFD8D
:100E80000546706A800700D449E7FFF797FD401BCD
:100E90000228F6D9032007B0F0BD01218843306055
:100EA000FFF78CFD05463068800700D433E7FFF775
:100EB00085FD411B03200229F5D93AE1706B04211D
:100EC00088437063706BF821884305998969C9006C
:100ED000014371630598007880060BD571680C207A
:100EE00001400C2939D1706B800303D50598006A45
:100EF00001280CD10598446A002C00D1E1E070680B
:100F00000C210140082905D1012C00D0C4E004982F
:100F100007B0F0BD012002063168049291433160B0
:100F20004706FFF74BFD0546022C0BD1049C3068A9
:100F3000384200D1DEE0FFF741FD411B03200229CA
:100F4000F5D9F6E03068384200D1BAE0FFF736FD57
:100F5000411B03200229F5D9EBE071680140082903
:100F600005D10320C003716801408142BBD0706B82
:100F70000599096A002900D1A9E001210A0410435A
:100F800070634C04FFF71AFD0546706B2042B1D127
:100F9000FFF714FD411B03200229F6D9C9E0706B4D
:100FA000042101437163706B012188437063FFF773
:100FB00005FD0546706B80078CD5FFF7FFFC411BD4
:100FC00003200229F6D9B4E0306A039988433062DD
:100FD000306A042188433062584CFFF7EFFC054625
:100FE000306A80071DD5FFF7E9FC411B0320A142B1
:100FF000F6D99EE0306A042101433162306A0399D8
:10100000084330624D4CFFF7D9FC0546306A800733
:1010100007D4FFF7D3FC401BA042F7D9032007B049
:10102000F0BD02980028059C00D07BE6F06901998C
:101030008843F06176E6010432688A4332608004B6
:10104000316881433160FFF7B9FC0546059C306883
:10105000384200D13AE6FFF7B1FC411B0320642976
:10106000F5D966E0810432680A43326001043068D1
:1010700008433060FFF7A2FC05463068384200D0D4
:1010800024E6FFF79BFC401B6428F6D9032007B039
:10109000F0BDC046001002400320C2037068024049
:1010A000F16A059CA36A9A42049D0DD10F2211405A
:1010B000236B994208D191040840E16A884228468E
:1010C00037D1002007B0F0BD284607B0F0BD0121A0
:1010D0000A04904370634C04FFF770FC0546706B84
:1010E000204200D106E7FFF769FC411B03200229DB
:1010F000F5D91EE0F06A0F218843059A116B014370
:10110000F1627B20C00371688143D06A0843916A11
:1011100001437160306820433060FFF74FFC0446A4
:1011200030683842CDD1FFF749FC011B032002296A
:10113000F6D907B0F0BDC04600700040881300002B
:10114000401E010E01D0012070470749074A506038
:10115000074803680B4003218907591801600020E4
:101160009060072111607047FFFFFF0010E000E072
:1011700020ED00E0B0B5002817D00446C06F00286D
:1011800005D1782000212154204600F02BF824209E
:10119000E067206801680125A9430160204600F04E
:1011A0002BF9002803D02846B0BD0120B0BD606AED
:1011B000002802D0204600F054F80920C00221681F
:1011C0004A6882434A6088682A2290438860086897
:1011D000012202430A60204600F0ACF8054628468A
:1011E000B0BD000070B586B00068D049884201D01B
:1011F00006B070BD0124A00314494A6802434A6046
:101200004A6802400192019860040A6802430A6039
:101210000968014000910594002503950220029081
:10122000032004904002019000980920C00601A903
:10123000FFF7FEFA1B26304621462A46FFF71CFC24
:101240003046FFF70DFC06B070BDC04614100240DA
:10125000FEE7FEE77047704780B5FFF7B3FB80BD40
:101260007047B0B5416ACA070CD18A0714D44A073F
:101270001CD40A0724D4CA062CD48A0634D44A06BD
:101280003CD44CE00122520403685C689443826AB7
:1012900022435A608A07EAD50122120403685C6877
:1012A0009443C26A22435A604A07E2D5012292045B
:1012B00003685C689443026B22435A600A07DAD5DC
:1012C0000122D20303685C689443426B22435A6054
:1012D000CA06D2D50122120303689C689443826B2C
:1012E00022439A608A06CAD50122520303689C6889
:1012F0009443C26B22439A604A0610D5012213051B
:10130000026854689C43056C2C4354609D4206D18E
:1013100003235B0554689C43436C234353600906D5
:1013200007D50121C904026853688B43806C1843B8
:101330005060B0BDF0B583B004460646783600274D
:10134000F760FFF73BFB03462068016809071FD5DC
:1013500028480090012002904105002220461D46A9
:1013600000F0F2F8002811D0EFF31080029981F319
:10137000108821680A6880239A430A6080F31088E5
:101380002020E0670320377003B0F0BD20682B46B3
:101390000068400725D5174800900125A9050022BF
:1013A000204600F0D1F800281BD0EFF3108085F321
:1013B000108809214901226813688B43136080F368
:1013C0001088EFF3108085F3108821688A68AA439B
:1013D0008A6080F310882020B0600320377003B04B
:1013E000F0BD2020E067B06027666766384637703A
:1013F00003B0F0BDFFFFFF01B0B50446006801680F
:10140000474A0A40A16823690B4365691D43154398
:10141000E1690D4305600322120343689343E268C8
:101420001A434260A269236A13430B2212028568A1
:1014300095431D43856000223A4B984206DC3C4BA5
:10144000984212D03B4B984216D00CE0364B984253
:1014500012D0364A904206D1374800688007000F04
:10146000364A125808E0102206E033480068800B24
:101470000C220240314882580125EB033048994242
:1014800010D1082A47D8C0467A44127952009744AE
:1014900004421F42194242421E00FFF7BBFB0028D4
:1014A00016D137E0082A36D87A4412795200974488
:1014B000043225321F3232322400FFF7ABFB002802
:1014C0001CD127E0FFF7B4FB002801D122E0184629
:1014D000400061684A08101800F006FA0246103A07
:1014E00018498A4217D201400007400F08430FE015
:1014F000FFF79EFB002801D10CE0184661684A08FE
:10150000101800F0F1F9014610390E4A914202D24A
:101510002168C86000250020A066E0662846B0BDAE
:10152000F369FFEFFF4B0040004C004000380140E2
:101530000044004000480040301002400C1B0008EE
:1015400000127A00F0FF0000F0B587B015460F4694
:101550000668F1693940C91B4A424A410021AA4242
:1015600025D106930C9C002C24D00B46611C26D15F
:10157000F1693940C91B4A424A41AA4214D1F16972
:101580003940C91B4A424A41AA420DD1F16939404A
:10159000C91B4A424A41AA4206D1F1693940C91BD6
:1015A0004A424A41AA42E3D0184607B0F0BD084675
:1015B00007B0F0BDFFF702FA032007B0F0BD0293B9
:1015C00001467831039101210191C90204910590EE
:1015D00006E0C9693940CA1B51425141A9424BD169
:1015E000FFF7ECF90699411A0323A142DCD80598CC
:1015F00001680A685207ECD5CA6912073FD4CA6964
:101600002646049C22423446E3D01F4604980862D2
:10161000EFF31082012181F3108809235B01059803
:10162000046825689D43256082F31088EFF31082DB
:1016300081F31088059803689C688C439C6005982A
:1016400082F31088026E012A0BD1EFF3108281F32E
:10165000108801680B681024A3430B60059882F37F
:1016600010882021039B99600022026682661A700E
:10167000D960384607B0F0BD029807B0F0BD082524
:101680000D62EFF31081019880F310880922520156
:10169000059B1B681C6894431C6081F31088EFF362
:1016A000108180F31088059A1268936883439360D1
:1016B000059B81F31088196E01290CD1EFF310817D
:1016C000012282F310881A6813681024A343136060
:1016D000059B81F310882021039A916000211966EF
:1016E00099661170D56007B0F0BD704796B0FFF7EE
:1016F00073F909AD281D3021FEF704FE0024129471
:10170000102004900D9001270C9702260996284678
:10171000FFF7C2FA002803D0EFF3108072B6FEE79D
:1017200003960894079406940720059005A821467F
:10173000FFF7BEF9002803D0EFF3108072B6FEE782
:101740003E4678045F4A116801431160F904019133
:10175000106808431060FF20C23002903F3051688B
:10176000014351607807916801439160564809A987
:101770000A4628C828C2A8C8A8C25448FFF758F883
:10178000B104504A10680843106010680091084086
:101790000990099810680199084310601068084082
:1017A0000590042001900D9003250C950B9403984F
:1017B0000A90A80209900598454809AF3946FFF7F5
:1017C00037F80B940A95099640483946FFF730F8E8
:1017D000282040490C54CC62029808624C62CE83A7
:1017E0000C77F0073C4A4A6088600498C8600C6136
:1017F0004C61019888610A940D1D2846FEF740FF50
:10180000002803D0EFF3108072B6FEE7009F2D4E44
:1018100006200B900A20099009A92846FEF78CFEA5
:10182000002803D0EFF3108072B6FEE72846FEF7DB
:10183000D1FF002803D0EFF3108072B6FEE7B06846
:101840003D463843B06025480C21E1225202244F26
:101850003B461C3B036042608460C460046141619C
:101860008461C461B168294009910999FFF782FC3C
:10187000002803D0EFF3108072B6FEE7194D16482A
:10188000026C1448026009AE30462946FEF79CFC03
:1018900030780028F3D0214606E0C0B2B881491C58
:1018A00009A8405C0028EAD03A681206F5D43A68E4
:1018B0001206F2D43A681206EFD43A681206F3D54B
:1018C000EBE7C04614100240E01A00080008004888
:1018D000000400487000002000240140B4000020F3
:1018E0001C4800403C1B000843088B421AD30022CE
:1018F00003098B4279D3030A8B425ED3030B8B42DD
:1019000042D3030C8B4227D30902FF2212BA030CE5
:101910008B4202D31212090203D0030B8B4233D342
:101920001AE0D3E0411A8041401C704703460B4344
:1019300071D443088B42F5D3002203098B4254D360
:10194000030A8B4239D3030B8B421DD3030C8B420A
:1019500002D394466EE0090AC30B8B4201D3CB033A
:10196000C01A5241830B8B4201D38B03C01A5241E0
:10197000430B8B4201D34B03C01A5241030B8B42E2
:1019800001D30B03C01A5241C30A8B4201D3CB02CD
:10199000C01A5241830A8B4201D38B02C01A5241B2
:1019A000430A8B4201D34B02C01A5241030A8B42B5
:1019B00001D30B02C01A5241CDD2C3098B4201D3CD
:1019C000CB01C01A524183098B4201D38B01C01A4B
:1019D000524143098B4201D34B01C01A52410309C2
:1019E0008B4201D30B01C01A5241C3088B4201D371
:1019F000CB00C01A524183088B4201D38B00C01A1E
:101A0000524143088B4201D34B00C01A5241411A44
:101A1000524110007047CA0F00D04942031000D352
:101A20004042534000229C4603098B422DD3030AB7
:101A30008B4212D38901FC2212BA030A8B420CD3C7
:101A4000890192118B4208D3890192118B4204D3F0
:101A5000890137D0921100E08909C3098B4201D373
:101A6000CB01C01A524183098B4201D38B01C01AAA
:101A7000524143098B4201D34B01C01A5241030921
:101A80008B4201D30B01C01A5241C3088B4201D3D0
:101A9000CB00C01A524183088B4201D38B00C01A7D
:101AA0005241D9D243088B4201D34B00C01A524154
:101AB000411A00D201465241104663465B1000D3E2
:101AC0004042704763465B1000D3404201B500219D
:101AD000004201D0C9430846C046C04602BD0000CE
:101AE000C003000001000000000000000000000032
:101AF00000000000000000000000000001020304DC
:101B000006070809000000000102030400000000AD
:101B100004000000080000000200000002030405A9
:101B2000060708090A0B0C0D0E0F10100102030422
:101B300005060708090A0B0C0D0E0F10256400009E
:101B4000601B000800000020100000001C010008BD
:101B5000701B000810000020300700003C01000846
:101B6000010000000400000000127A0000000000E4
:04000005080000C12E
:00000001FF
