:020000040800F2
:10000000F007002091010008EF160008ED16000827
:1000100000000000000000000000000000000000E0
:10002000000000000000000000000000F3160008BF
:100030000000000000000000F1160008F51600089E
:10004000A3010008A3010008A3010008A301000800
:10005000A3010008A3010008A3010008A3010008F0
:10006000A301000819060008A3010008A301000865
:10007000A3010008A3010008A3010008A3010008D0
:10008000A3010008A3010008A3010008A3010008C0
:10009000A3010008A3010008A3010008A3010008B0
:1000A000A3010008A3010008A3010008A3010008A0
:1000B000A3010008A3010008A3010008A301000890
:1000C00000F002F800F054F812A030C808382418E4
:1000D0002D18AC4201D100F04BF80FCCA246AB4634
:1000E0000CA730CF2D1B083F3F197C427F1E544484
:1000F0002D090426F441641EAC4201D300F038F807
:100100000126334200D0FB1A3343984754465D46DC
:10011000DFE70000401F0000601F0000103A02D31C
:1001200078C878C1FAD8520701D330C830C101D598
:1001300004680C6070470000704700000023002432
:1001400000250026103A01D378C1FBD8520700D30E
:1001500030C100D50B60704710B5642902D100F0A2
:100160007DF810BD002010BD1FB51FBD10B510BD1E
:1001700000F079F91146FFF7F7FF01F005FD00F0F7
:1001800091F903B4FFF7F2FF03BC00F097F9000008
:100190000748804707480047FEE7FEE7FEE7FEE71F
:1001A000FEE7FEE704480549054A064B7047000094
:1001B000FD160008C1000008F0010020F007002033
:1001C000F0030020F00300200FB41CB5074B06AA73
:1001D0007B4469460090059800F019F900206946B3
:1001E00000F028F91CBC08BC04B0184761020000EC
:1001F000F8B50E460446002020622046E168884794
:10020000002829D0252802D06268A16820E0E16892
:1002100020460027884705001ED028464138192867
:1002200002D80127FF0220353246204627602946A2
:10023000FFF792FF002808D0012804D0F61DF60829
:10024000F6000836D9E7361DD7E762682846A16868
:100250009047206A401CCFE7206AF8BDF7B500251B
:1002600075291068009914A611D0C046C046002810
:1002700002DA404211A608E0009909688A0701D510
:100280000FA602E0490704D50EA6012501E0C046ED
:10029000C046009F0024243704E000F0D0F830313D
:1002A0003955641C0028F8D12B4632462146009867
:1002B00000F04FF8FEBD0000000000002D0000001F
:1002C0002B0000002000000030B5441C03E0017842
:1002D000401C00290DD08107F9D10B4BDD0104C86A
:1002E000D11A91432940FAD0001B0A0603D0C01E40
:1002F00030BD001B30BD0A0401D0801E30BD090294
:10030000FCD0401E30BD00000101010101E004C02D
:10031000091F0429FBD28B0701D50280801CC90765
:1003200000D00270704700290BD0C30702D00270C2
:10033000401C491E022904D3830702D50280801C79
:10034000891EE3E70022EEE70022DFE770477047EF
:100350007047FFB504460D4681B0243000902168F7
:10036000880604D51022E0699143216000E0012055
:10037000A84201DD471B00E000270498A1697A1913
:100380001018081AA0612078C00602D42046C04682
:10039000C046002608E003986268A168805D904727
:1003A000206A401C761C206204988642F3DB207889
:1003B000C0060AD52046C046C04606E06268A1686D
:1003C00030209047206A401C206238467F1E00285B
:1003D000F4DC07E000986268A168405D9047206AFD
:1003E000401C206228466D1E0028F3DC2046C046D3
:1003F000C0462078000602D5022005B0F0BD0120DD
:10040000FBE7000001694A1C02610878704700B5EB
:100410008FB0029100210591054901937944039120
:10042000114604906846FFF7E3FE0FB000BD0000E0
:10043000E5FFFFFF0A681070521C0A607047014612
:100440008008081A02091018020A1018020C101865
:10045000C008820012185200891A01E0401C0A39B3
:100460000A29FBD27047754600F024F8AE46050015
:1004700069465346C008C000854618B020B5FFF74E
:1004800091FE60BCB64600260027C0C5C0C5C0C5E9
:10049000C0C5C0C5C0C5C0C5C0C5403D49084900AC
:1004A0008D46704710B50446C046C0462046FFF74B
:1004B00068FE10BD00487047100000200149182058
:1004C000ABBEFEE7260002007047B0B50146406AA9
:1004D000826B50231A4204D0006B026B084690478F
:1004E000B0BD01214A02836B134383630268D36862
:1004F0001B059B0F02D000F03DF9B0BD837E002BA1
:10050000F9D113681B07F6D593685B070ED4034631
:10051000383354680C25AC435460FF2402341A6805
:10052000A2430A431A6000F025F9B0BD826B202374
:100530001343836303463C33C26B0A431A6000F0E3
:1005400019F9B0BD80B5406A816B40220A438263CD
:10055000C16B04220A43C26300F00EF980BD80B56E
:10056000406A00F008F980BD70B582B005460024ED
:1005700001940068816803220A40012A05D10168BC
:10058000C9070ED1C16809040BD48168214A114200
:100590000AD0A86B10210143A963E86B0124204312
:1005A000E863204602B070BD816801220A43826080
:1005B0006B4800686B4901F01DFC01900198002810
:1005C00017D00198401E01900198002811D0019881
:1005D000401E0190019800280BD00198401E019008
:1005E0000198002805D00198401E0190019800282C
:1005F000E7D100F0D7FB064628680068C007D0D1D5
:1006000000F0D0FB811B28680329F6D30168C907D5
:10061000F3D1BEE71700008080B5D94800F002FA98
:1006200080BDC046EFF3108072B6FEE7F0B583B030
:10063000002302933422825C012A02D1022003B0FB
:10064000F0BD0193074634370668B268520716D4E6
:1006500000970D684B6801242746AF403E4A9342FD
:1006600014D1B06AB843B062284610380228019EFF
:100670003046009F5BD8112D1AD03C4819E0816BA1
:1006800020220A4382630120019E50E0B26A3A436D
:10069000B262C06A421E072A4CD22846103802288D
:1006A000019E3046009F42D8112D0DD020060CE04F
:1006B0002D48102D00D12E4828490A6802400A60B2
:1006C00030463E7003B0F0BDA005102D00D1E0050E
:1006D00022490A6802430A60102D304627D120487B
:1006E0000068204901F086FB0A21414302910298EB
:1006F000002830461BD00298401E02900298002825
:1007000011D00298401E0290029800280BD0029847
:10071000401E02900298002805D00298401E0290C8
:1007200002980028E7D130463E7003B0F0BD3E701D
:1007300003B0F0BD22079042AFD07269072002409B
:1007400089689142A9D072698243726101407069DF
:1007500008437061A1E7C04601100000082701406E
:100760000800002040420F00FFFFBFFFFFFFFFFE19
:10077000FFFF7FFF7047704770470000F0B581B002
:100780000125002862D0044606462436806B0028E6
:1007900003D0A06BC00609D554E000203074E0639C
:1007A000204600F093F8A06BC0064BD42068816807
:1007B000490747D481214900A26B8A43911CA16358
:1007C000826803210A40012A05D10268D2070ED1AE
:1007D000C26812040BD4C26818239A43A368134357
:1007E000C360890702698A43616811430161C16876
:1007F000344A0A40C260A16A491E4A1E9141090357
:10080000227E9203637EDB031343A27E55031D43C6
:10081000E36827692B430B43B91E4D424D41AD00A0
:100820001D43317849002943E37E012B14D1002A6E
:100830000FD0A26B20231343A363E26B0123134366
:10084000E36309E0A06B10210143A163284601B0D6
:10085000F0BD012212041143E269FF23C2339A4220
:1008600002D0236A19431143C2680A43C260E26A94
:10087000531E072B21D243690725AB4343612A400E
:10088000436913434361C0680F4A02408A4207D15B
:100890000025E563A06B0121014302208143D4E7D9
:1008A000A06B1021014302208143A163E06B01256D
:1008B0002843E063284601B0F0BD01231B079A429C
:1008C000D9D0E0E71902FEFFE7FF3F83F0B587B01C
:1008D000002606960596026826498A4201D007B08E
:1008E000F0BD009001277902234842680A43426024
:1008F00042680A4001920199F90402680A430260C1
:1009000002680A4001920199790402680A43026070
:10091000006808400190019804960324039402970C
:10092000164802AD294600F077F904960394132087
:1009300002900920C006294600F06EF97803104D98
:100940002021BA023B0280240E4F2F606E60AE6001
:10095000EC602B616A61A961E861284600F0CCF87F
:10096000002801D0FFF75EFE00986862056307B0BB
:10097000F0BDC046002401401410024000080048A9
:100980001C01002008000240F0B581B00446006858
:1009900080680227400711D43420205C01280DD044
:1009A0000E462546343501272F70607E01280092BF
:1009B00007D02046FFF7D8FD002802D0384601B006
:1009C000F0BDA06B13490140012210020818A0637A
:1009D0000027E76321681C20086048681023034350
:1009E0004B602F70206B0D4D0D4B8362C5620A4B1F
:1009F0000363CB681343CB6040313246009B00F069
:100A0000B9F82068816804220A438260384601B040
:100A1000F0BDC046FEF0FFFF450500085F05000879
:100A2000CB040008F0B585B0C16B026C04273C46CE
:100A30000292944003910E68214631404B424B4153
:100A4000049005682868014639404A424A411A43E1
:100A500030D0019501230227014639404C424C41D8
:100A6000029A974037421D461946334600D0214628
:100A7000049E3446203400292CD0082108404742E7
:100A800047411046D340190700D53D46002D019B34
:100A90001ED119680E229143196001210A46824035
:100AA000039B5A60B163002222706170316B002990
:100AB0000CD10DE02968890602D42968B943296060
:100AC00003994C60049EF16A002901D030468847A2
:100AD00005B0F0BD019B1968890605D419680A2282
:100AE00091431960012161700021217003994F60C9
:100AF000B16A0029EAD1EBE7F0B585B000282FD024
:100B000004460646203602207070A2CC2368606836
:100B10000190A0680290E068039020690490086842
:100B2000114A02402A433A431A4301980243029869
:100B3000024303980243049802430A600025E562D9
:100B40000A48206335700A480C3C0818142101F04B
:100B500051F98000206401207070284605B0F0BD76
:100B60000125284605B0F0BD0FC0FFFF0000024080
:100B7000F8FFFDBFF0B582B004462020255C0220BE
:100B8000012D2AD026462036012535707778012F91
:100B900021D1022070700020A06326683768AF431F
:100BA0003760E76B0097276C0195BD40009F7D6023
:100BB00073606368102B174600D00F46B760102B88
:100BC00000D01146F1603168E26A002A019B06D02C
:100BD0000E22114309E00021317002B0F0BD0A225B
:100BE0001143316031680422914331603168194307
:100BF000316002B0F0BD0000B0B5044600F0D2F89C
:100C00000546601C02D084480078041900F0CAF838
:100C1000401BA042FAD3B0BDF0B589B001900A687C
:100C2000002A00D1B5E00D465B48019B834201D00C
:100C3000052000E004201721C9065918890A9B05E0
:100C400059180091042900D3009000231C461F4628
:100C500007950AE0114331607F1C2A681046F8406E
:100C60001B1DA41C002800D193E001260396BE4062
:100C70003240F1D00292069303200146A140C943BD
:100C80006A68154605406B1E012B059213D8049126
:100C900001998868049B1840079BDB68A3400343C5
:100CA0008B60D006C00FB8404B68B3430E46049922
:100CB0000343736006E0032D019E03D10546069BA6
:100CC000029A20E0F0680840079B9B68A34003431A
:100CD000F360022D069B029A15D11C201840049146
:100CE0000F218140FB089B00F3181D6A8D43079E6E
:100CF00031698140294319620499069B7068019EFD
:100D0000032505900540A540306808402843306021
:100D100005988003800F079D9ED04A490868039D6F
:100D2000284308600868284008900C2018400F21CC
:100D3000814003233D469D43089B194EAB598B438D
:100D4000009981401943A951079D144EB168686804
:100D5000C3020BD51143B160F16883020BD49143F8
:100D6000F160716883030BD491430AE09143B16051
:100D7000F1688302F3D51143F16071688303F3D501
:100D80001143069B71603168C00300D562E791434F
:100D900061E709B0F0BDC046001000480004014002
:100DA00008000140054800687047C0461A480078AE
:100DB00002490A68101808607047C046E801002020
:100DC00080B58548016810220A430260032000F0C4
:100DD00005F800F023F8002080BDC04670B5044639
:100DE0007D20C0000C4E317801F004F801468248A5
:100DF000006800F0FFFF00F08BFB0125032C08D8F2
:100E0000002806D10025E84321462A4600F01CF8B8
:100E10007460284670BDC0460000002082B00948BA
:100E2000016801221143016001681140019101999B
:100E3000110742680A4342604068084000900098E9
:100E400002B0704718100240002805D40322034660
:100E500093430A4A9A1803E00C220240064BD21828
:100E60008007C00E8901C9B28140FF23834010680A
:100E7000984308431060704714ED00E000E400E080
:100E8000F0B581B0002846D00446534A13680120CB
:100E900003408B4208D213680126B3430B4313600F
:100EA000126832408A4237D1009121688A07694B23
:100EB00010D54A0706D5072212021B681343654A5C
:100EC0001360644B1A68F0239A43A3681343614A82
:100ED0001360604BC90722D13F49086801263040A2
:100EE000009A904205D90868B04308600868C007B6
:100EF00012D12078400706D50720000219688143E7
:100F0000E068084318601A681007810F52480229E8
:100F100012D2044650E00126304601B0F0BD6168AF
:100F200003290DD01A1F02290FD0012912D11268EE
:100F300092030646F0D511E0032926D1474C3BE049
:100F40001A6B92030646E7D508E01268920106463E
:100F5000E2D503E0126892070646DDD5186803263D
:100F6000B04308431860FFF71DFF07461B4D394B80
:100F700018680C210140606880008142ACD0FFF706
:100F800011FFC01BA842F2D9C6E70321CB033149A8
:100F9000896A0F240C403249095D94021A40240FDB
:100FA000304D2C5D9A4202D033049A4200E02B4827
:100FB00000F020FF4443274B18680006000F084943
:100FC000085CC4400C4804600320FFF707FF0026BC
:100FD000304601B0F0BDC04600200240881300003A
:100FE000EA1F0008044800681A4909684905490FC2
:100FF000024A515CC840704708000020FA1F0008F0
:10100000B0B514490A681007830F1348022B00D2A9
:10101000B0BD032B01D11148B0BD0323DB03896AA6
:101020000F240C400E49095D94021A40240F0D4D07
:101030002C5D9A4207D001231B049A4200F0DAFE8D
:1010400044432046B0BD054800F0D4FE444320464A
:10105000B0BDC0460410024000127A00006CDC02F1
:101060001220000802200008F0B587B004460120D5
:10107000002C00D145E204902078C007F94E059479
:101080000CD071680C200140042900D090E0306839
:10109000800303D56068002800D120E12078800714
:1010A00021D570680007800F0ED070680C210140B8
:1010B000082900D09DE00320C00371680140012091
:1010C000C003814200D094E030688007059C03D5BE
:1010D000E068012800D002E13068F82188432169E6
:1010E000C90001433160059C2078000724D4207892
:1010F000400737D42078C00600D4D3E00598406973
:10110000411D00D1C2E0012800D030E1706B042104
:1011100001437163706B012101437163FFF742FE6C
:101120000546706B800700D5B4E0FFF73BFE411B1E
:1011300003200229F5D9E4E1706AE169002900D1B0
:1011400081E0012108437062FFF72CFE0546706ABA
:101150008007CCD4FFF726FE401B0228F7D90320D6
:1011600007B0F0BD012003900107F069084002902C
:1011700006D1F0690843F061F069084006900698CE
:101180000191E14F3868C0054AD4039804023868D9
:1011900020433860FFF706FE0546386820423FD1FD
:1011A000FFF700FE401B6428F7D9032007B0F0BD0D
:1011B00071680140082908D10320C003716801400B
:1011C00001200004814200D161E7616801204704E9
:1011D000002900D117E1052900D12BE1012900D117
:1011E0002CE1010432688A4332608104306888430C
:1011F00027E13068059CE168002936D001210843C9
:101200003060FFF7CFFD05463068800700D563E703
:10121000FFF7C8FD401B0228F6D9032007B0F0BD38
:1012200005988068002800D1B6E0052800D1C9E003
:10123000012800D1CAE0306A039988433062306ADD
:1012400004218843C5E0012188437062FFF7AAFDAD
:101250000546706A800700D449E7FFF7A3FD401BED
:101260000228F6D9032007B0F0BD01218843306081
:10127000FFF798FD05463068800700D433E7FFF795
:1012800091FD411B03200229F5D93AE1706B04213D
:1012900088437063706BF821884305998969C90098
:1012A000014371630598007880060BD571680C20A6
:1012B00001400C2939D1706B800303D50598006A71
:1012C00001280CD10598446A002C00D1E1E0706837
:1012D0000C210140082905D1012C00D0C4E004985C
:1012E00007B0F0BD012002063168049291433160DD
:1012F0004706FFF757FD0546022C0BD1049C3068CA
:10130000384200D1DEE0FFF74DFD411B03200229EA
:10131000F5D9F6E03068384200D1BAE0FFF742FD77
:10132000411B03200229F5D9EBE07168014008292F
:1013300005D10320C003716801408142BBD0706BAE
:101340000599096A002900D1A9E001210A04104386
:1013500070634C04FFF726FD0546706B2042B1D147
:10136000FFF720FD411B03200229F6D9C9E0706B6D
:10137000042101437163706B012188437063FFF79F
:1013800011FD0546706B80078CD5FFF70BFD411BE7
:1013900003200229F6D9B4E0306A03998843306209
:1013A000306A042188433062584CFFF7FBFC054645
:1013B000306A80071DD5FFF7F5FC411B0320A142D1
:1013C000F6D99EE0306A042101433162306A039904
:1013D000084330624D4CFFF7E5FC0546306A800754
:1013E00007D4FFF7DFFC401BA042F7D9032007B06A
:1013F000F0BD02980028059C00D07BE6F0690199B9
:101400008843F06176E6010432688A4332608004E2
:10141000316881433160FFF7C5FC0546059C3068A3
:10142000384200D13AE6FFF7BDFC411B0320642996
:10143000F5D966E0810432680A43326001043068FD
:1014400008433060FFF7AEFC05463068384200D0F4
:1014500024E6FFF7A7FC401B6428F6D9032007B059
:10146000F0BDC046001002400320C2037068024075
:10147000F16A059CA36A9A42049D0DD10F22114086
:10148000236B994208D191040840E16A88422846BA
:1014900037D1002007B0F0BD284607B0F0BD0121CC
:1014A0000A04904370634C04FFF77CFC0546706BA4
:1014B000204200D106E7FFF775FC411B03200229FB
:1014C000F5D91EE0F06A0F218843059A116B01439C
:1014D000F1627B20C00371688143D06A0843916A3E
:1014E00001437160306820433060FFF75BFC0446C5
:1014F00030683842CDD1FFF755FC011B032002298B
:10150000F6D907B0F0BDC046007000408813000057
:10151000401E010E01D0012070470749074A506064
:10152000074803680B400321890759180160002010
:101530009060072111607047FFFFFF0010E000E09E
:1015400020ED00E0B0B5002817D00446C06F002899
:1015500005D1782000212154204600F02BF82420CA
:10156000E067206801680125A9430160204600F07A
:1015700091F9002803D02846B0BD0120B0BD606AB3
:10158000002802D0204600F0BAF80920C0022168E5
:101590004A6882434A6088682A22904388600868C3
:1015A000012202430A60204600F012F9054628464F
:1015B000B0BD000080B586B000681349884201D0F4
:1015C00006B080BD0120800410498A6802438A6009
:1015D0008A6802400192019A0A6802430A60096817
:1015E0000140009104200590002003900220029009
:1015F00003200490800201900098054801A9FFF79C
:101600000BFB06B080BDC0460048004014100240ED
:1016100000040048F0B585B00546C06F202811D100
:10162000012000290CD01646002A09D0012007030A
:10163000AA68BA4209D1CA0707D02A69002A04D188
:1016400005B0F0BD022005B0F0BD019103932C461A
:1016500050340020029060632120E867FFF7A2FB6E
:10166000049066802680A868B84202D128690028C4
:1016700001D0019F02E000270198029003990BE03E
:10168000029A1188184B19400185921C0292374624
:1016900003996088401E60806088002810D0009107
:1016A0008021002628463246049B00F09BF9002842
:1016B00014D12868002FE3D0397801857F1CE7E733
:1016C0000091402100222846049B00F08BF9202144
:1016D000E9670028B4D0032005B0F0BD2020E867FA
:1016E000032005B0F0BDC046FF010000FEE7FEE7A5
:1016F0007047704780B5FFF759FB80BD7047B0B5A4
:10170000416ACA070CD18A0714D44A071CD40A07B5
:1017100024D4CA062CD48A0634D44A063CD44CE0DD
:101720000122520403685C689443826A22435A602F
:101730008A07EAD50122120403685C689443C26AEE
:1017400022435A604A07E2D50122920403685C688A
:101750009443026B22435A600A07DAD50122D2036E
:1017600003685C689443426B22435A60CA06D2D530
:101770000122120303689C689443826B22439A609F
:101780008A06CAD50122520303689C689443C26B3F
:1017900022439A604A0610D5012213050268546854
:1017A0009C43056C2C4354609D4206D103235B058A
:1017B00054689C43436C23435360090607D50121B9
:1017C000C904026853688B43806C18435060B0BDF5
:1017D000F0B583B00446064678360027F760FFF779
:1017E000E1FA03462068016809071FD528480090E0
:1017F000012002904105002220461D4600F0F2F82B
:10180000002811D0EFF31080029981F3108821682D
:101810000A6880239A430A6080F310882020E067DA
:101820000320377003B0F0BD20682B4600684007E6
:1018300025D5174800900125A9050022204600F073
:10184000D1F800281BD0EFF3108085F31088092110
:101850004901226813688B43136080F31088EFF30B
:10186000108085F3108821688A68AA438A6080F313
:1018700010882020B0600320377003B0F0BD202016
:10188000E067B060276667663846377003B0F0BD22
:10189000FFFFFF01B0B5044600680168474A0A40EF
:1018A000A16823690B4365691D431543E1690D4335
:1018B00005600322120343689343E2681A434260BF
:1018C000A269236A13430B221202856895431D43C4
:1018D000856000223A4B984206DC3C4B984212D07D
:1018E0003B4B984216D00CE0364B984212D0364A09
:1018F000904206D1374800688007000F364A1258D8
:1019000008E0102206E033480068800B0C220240F9
:10191000314882580125EB033048994210D1082AFA
:1019200047D8C0467A4412795200974404421F4275
:10193000194242421E00FFF755FB002816D137E03E
:10194000082A36D87A441279520097440432253254
:101950001F3232322400FFF745FB00281CD127E05C
:10196000FFF74EFB002801D122E0184640006168D5
:101970004A08101800F03EFA0246103A18498A4206
:1019800017D201400007400F08430FE0FFF738FB74
:10199000002801D10CE0184661684A08101800F0D0
:1019A00029FA014610390E4A914202D22168C860D4
:1019B00000250020A066E0662846B0BDF369FFEF71
:1019C000FF4B0040004C0040003801400044004004
:1019D00000480040301002402420000800127A0025
:1019E000F0FF0000F0B587B015460F460668F169B4
:1019F0003940C91B4A424A410021AA4225D10693D7
:101A00000C9C002C24D00B46611C26D1F169394076
:101A1000C91B4A424A41AA4214D1F1693940C91B43
:101A20004A424A41AA420DD1F1693940C91B4A4292
:101A30004A41AA4206D1F1693940C91B4A424A418A
:101A4000AA42E3D0184607B0F0BD084607B0F0BD83
:101A5000FFF7A8F9032007B0F0BD029301467831E3
:101A6000039101210191C9020491059006E0C96921
:101A70003940CA1B51425141A9424BD1FFF792F95B
:101A80000699411A0323A142DCD8059801680A6827
:101A90005207ECD5CA6912073FD4CA692646049C8E
:101AA00022423446E3D01F4604980862EFF31082C6
:101AB000012181F3108809235B01059804682568DA
:101AC0009D43256082F31088EFF3108281F3108824
:101AD000059803689C688C439C60059882F3108885
:101AE000026E012A0BD1EFF3108281F31088016896
:101AF0000B681024A3430B60059882F31088202103
:101B0000039B99600022026682661A70D96038468B
:101B100007B0F0BD029807B0F0BD08250D62EFF3E5
:101B20001081019880F3108809225201059B1B68DF
:101B30001C6894431C6081F31088EFF3108180F3DC
:101B40001088059A1268936883439360059B81F31C
:101B50001088196E01290CD1EFF31081012282F354
:101B600010881A6813681024A3431360059B81F33F
:101B700010882021039A91600021196699661170DE
:101B8000D56007B0F0BD000094B0FFF719F907ADBC
:101B9000281D3021FEF7D8FB0024109410200B9054
:101BA00001270A97022007902846FFF75DFA0028D0
:101BB00003D0EFF3108072B6FEE706940594049408
:101BC0000720039003A82146FFF75AF9002803D005
:101BD000EFF3108072B6FEE7B9056A4802680A435F
:101BE000026002680A4007920799F90402680A43F2
:101BF000026002680A4007920799790402680A4362
:101C0000026002680A4007920799B90402680A4311
:101C1000026002680A40079207990168394301602F
:101C200000683840079007982C20574E37543804E6
:101C30003463B462FF21C2310425FA07534BB36009
:101C4000F26034617461B7610295F561306271626E
:101C5000354608352846FEF791FD002803D0EFF3FE
:101C6000108072B6FEE70794380709903803089091
:101C700007A92846FEF7DAFC002803D0EFF310800E
:101C800072B6FEE7079707A92846FEF7CFFC0028A3
:101C900003D0EFF3108072B6FEE70298079007A911
:101CA0002846FEF7C3FC002803D0EFF3108072B67D
:101CB000FEE70A20079007A92846FEF7B7FC002890
:101CC00003D0EFF3108072B6FEE731480C21314AA1
:101CD00004624462E1235B021CC0046044608160D2
:101CE000C46004610C38FFF72DFC002803D0EFF32B
:101CF000108072B6FEE77D20C300254826A112227F
:101D00000293FFF787FC042228463146FEF73CFE8B
:101D1000002809D01E4825A11122029BFFF77AFC5A
:101D2000EFF3108072B6FEE7194D25A11322284665
:101D3000029F3B46FFF76EFC26A1142228463B4635
:101D4000FFF768FCE443284F73883288B088F18835
:101D50000090019138462549FEF736FA3846FEF7DD
:101D6000B3FA82B2284639462346FFF753FC0222D3
:101D700028461F492346FFF74DFC0298FEF73CFF1B
:101D8000E2E7C04614100240700000200024014029
:101D9000600100200048004041444320444D412060
:101DA000737461727465640D0A000000414443203D
:101DB000444D41206661696C65640D0A00000000B5
:101DC00041444320444D4120737461727465642022
:101DD000310D0A0041444320444D41207374617227
:101DE00074656420320D0A00B80000203420000819
:101DF0005020000843088B421AD3002203098B426B
:101E000079D3030A8B425ED3030B8B4242D3030C7C
:101E10008B4227D30902FF2212BA030C8B4202D352
:101E20001212090203D0030B8B4233D31AE0D3E022
:101E3000411A8041401C704703460B4371D443084C
:101E40008B42F5D3002203098B4254D3030A8B4201
:101E500039D3030B8B421DD3030C8B4202D3944620
:101E60006EE0090AC30B8B4201D3CB03C01A524167
:101E7000830B8B4201D38B03C01A5241430B8B421D
:101E800001D34B03C01A5241030B8B4201D30B0306
:101E9000C01A5241C30A8B4201D3CB02C01A52412D
:101EA000830A8B4201D38B02C01A5241430A8B42F0
:101EB00001D34B02C01A5241030A8B4201D30B02D9
:101EC000C01A5241CDD2C3098B4201D3CB01C01AF3
:101ED000524183098B4201D38B01C01A52414309FD
:101EE0008B4201D34B01C01A524103098B4201D3EB
:101EF0000B01C01A5241C3088B4201D3CB00C01A58
:101F0000524183088B4201D38B00C01A52414308CF
:101F10008B4201D34B00C01A5241411A524110006A
:101F20007047CA0F00D04942031000D340425340CB
:101F300000229C4603098B422DD3030A8B4212D305
:101F40008901FC2212BA030A8B420CD38901921137
:101F50008B4208D3890192118B4204D3890137D077
:101F6000921100E08909C3098B4201D3CB01C01A49
:101F7000524183098B4201D38B01C01A524143095C
:101F80008B4201D34B01C01A524103098B4201D34A
:101F90000B01C01A5241C3088B4201D3CB00C01AB7
:101FA000524183088B4201D38B00C01A5241D9D2CF
:101FB00043088B4201D34B00C01A5241411A00D250
:101FC00001465241104663465B1000D340427047C1
:101FD00063465B1000D3404201B50021004201D0AE
:101FE000C9430846C046C04602BD000000000000CC
:101FF00000000102030406070809000000000102B6
:10200000030402030405060708090A0B0C0D0E0F52
:1020100010100102030405060708090A0B0C0D0E37
:102020000F10000000000000040000000800000085
:10203000020000007B313A2025642C20323A202512
:10204000642C20333A2025642C20343A2025647DEA
:102050000D0A000078200008000000201000000099
:102060001C0100088820000810000020E007000084
:102070003C01000800000000010000000400000016
:0820800000127A0000000000CC
:04000005080000C12E
:00000001FF
