:020000040800F2
:1000000080070020A1010008FF170008FD17000865
:1000100000000000000000000000000000000000E0
:1000200000000000000000000000000003180008AD
:10003000000000000000000001180008051800087A
:10004000B3010008B3010008B3010008B3010008C0
:10005000B3010008B3010008B3010008B3010008B0
:10006000B3010008B3010008B3010008B3010008A0
:10007000B3010008B3010008B3010008B301000890
:10008000B3010008B3010008B3010008B301000880
:10009000B3010008B3010008B3010008B301000870
:1000A000B3010008B3010008B30100080F180008ED
:1000B000B301000811180008B3010008B3010008DB
:1000C00000F002F800F05CF812A030C808382418DC
:1000D0002D18AC4201D100F053F80FCCA246AB462C
:1000E0000CA730CF2D1B083F3F197C427F1E544484
:1000F0002D090426F441641EAC4201D300F040F8FF
:100100000126334200D0FB1A3343984754465D46DC
:10011000DFE70000441C0000641C0000103A02D31A
:1001200078C878C1FAD8520701D330C830C101D598
:1001300004680C6070470000704700000023002432
:1001400000250026103A01D378C1FBD8520700D30E
:1001500030C100D50B60704710B5642902D100F0A2
:100160007FF810BD002010BD1FB50098019900F068
:100170009EFC00F099F91FBD10B500F001FA10BD0A
:1001800000F030FA1146FFF7EFFF01F051FB00F0ED
:100190002BFC03B4FFF7F0FF03BC00F007FE0000E8
:1001A0000748804707480047FEE7FEE7FEE7FEE70F
:1001B000FEE7FEE704480549054A064B7047000084
:1001C0000D180008C10000088001002080070020F1
:1001D00080030020800300200FB4054910B503AA56
:1001E000029800F01DF910BC08BC04B018470000CC
:1001F0006C000020F8B50E46044600202062204620
:10020000E1688847002829D0252802D06268A168C3
:1002100020E0E16820460027884705001ED02846D8
:100220004138192802D80127FF02203532462046DE
:1002300027602946FFF790FF002808D0012804D046
:10024000F61DF608F6000836D9E7361DD7E76268CE
:100250002846A1689047206A401CCFE7206AF8BD75
:10026000F7B5002575291068009914A611D0C0466D
:10027000C046002802DA404211A608E00099096849
:100280008A0701D50FA602E0490704D50EA601256D
:1002900001E0C046C046009F0024243704E000F07F
:1002A000D3F830313955641C0028F8D12B4632463A
:1002B0002146009800F05CF8FEBD00000000000040
:1002C0002D0000002B0000002000000001E004C011
:1002D000091F0429FBD28B0701D50280801CC907A6
:1002E00000D00270704700290BD0C30702D0027003
:1002F000401C491E022904D3830702D50280801CBA
:10030000891EE3E70022EEE70022DFE7704770472F
:1003100070471F22030C02D10F2200041CD0030ED1
:1003200001D10002083A030F01D10001121F830F0F
:1003300001D18000921E002801DB4000521ED20530
:100340005118021251181922904004D3491C002858
:1003500001D14908490008467047C10FC90700D0BC
:100360004042012292071143D3E701218907D0E7D8
:10037000FFB504460D4681B0243000902168880600
:1003800004D51022E0699143216000E00120A842D9
:1003900001DD471B00E000270498A1697A191018B5
:1003A000081AA0612078C00602D42046C046C04684
:1003B000002608E003986268A168805D9047206A83
:1003C000401C761C206204988642F3DB2078C0062D
:1003D0000AD52046C046C04606E06268A1683020C3
:1003E0009047206A401C206238467F1E0028F4DCBB
:1003F00007E000986268A168405D9047206A401C51
:10040000206228466D1E0028F3DC2046C046C04608
:100410002078000602D5022005B0F0BD0120FBE7E0
:10042000084B70B50D467B4400F027F8044628467B
:1004300000F036F8002802D00020C04370BD2046EE
:1004400070BD00009118000001468008081A0209DA
:100450001018020A1018020C1018C0088200121896
:100460005200891A01E0401C0A390A29FBD2704760
:1004700001694A1C02610878704700B58FB002918B
:100480000021059105490193794403911146049097
:100490006846FFF7AFFE0FB000BD0000E5FFFFFFAD
:1004A000C06880210840704710B543485421FFF7C9
:1004B0002BFF42485421FFF727FF41485421FFF703
:1004C00023FF40483C493D4B404A01603E480360A1
:1004D0003B4810605A1C0A65411C196501210165E1
:1004E0003C48354A3AA1784400F0E2F9002804D1AA
:1004F000384878440C3800F07FFA38482F4A36A143
:10050000784400F0D5F9002804D1344878440C38F8
:1005100000F072FA32482A4A2FA1784400F0C8F954
:10052000002804D12E4878440C3800F065FA4023A6
:100530002148DC000021224600F094F9002804D074
:10054000244878445C3800F057FA1C48224640237F
:10055000002100F087F9002804D0204878445C3856
:1005600000F04AFA164822461023002100F07AF9DA
:10057000002804D01A4878445C3800F03DFA10BDD9
:100580000F4870B5006D44080B48640000F008FA8D
:100590000A4800F005FA0A4800F002FA09E0206D66
:1005A000450820466D0000F0FBF9204600F039F8C0
:1005B0002C46002CF3D170BD180000206C000020E8
:1005C000C0000020000000200400002008000020DF
:1005D00072000000F017000077000000DA1700003A
:1005E000C4170000754600F041FAAE4605006946A2
:1005F0005346C008C000854618B020B5FFF7DAFDA5
:1006000060BCB64600260027C0C5C0C5C0C5C0C571
:10061000C0C5C0C5C0C5C0C5403D490849008D46DC
:10062000704770B50446051F00F024FA0068002CDE
:100630001AD0446801E020466468002C01D0AC4226
:10064000F9D301680A18AA4204D12A680546891814
:10065000016000E0456028684119A14205D1616848
:10066000696021684018286070BD6C6070BD000032
:10067000F7B505460C46C8680521C9048843012121
:1006800089050843E060800602D5204600F049FB5A
:100690007249E0680140022903D0204600F0E0FAE8
:1006A000BEE00521012249030140D20391420FD14E
:1006B000C00306D56168E06A884200D808466060D9
:1006C00006E02069E0626060606900F0C8F9A0613E
:1006D000A1680022EEB200290EDAE06883050BD48F
:1006E000C943A1600921226049030843E0606068B2
:1006F000411C61600670AEE0E068012149030843D7
:10070000E060002020602069002831D1606900F09D
:1007100098F9012527462437ED02002816D0A08934
:100720008005800F08D0E06900F0EEF90028206114
:1007300002D0E068284318E001202761E061E0680A
:10074000032109028843012189020DE0E06900F0DC
:10075000DBF900282061EFD0E0682843E0608105E4
:10076000890F03D1FF2101310843E06020696060F7
:10077000E2683B4F2569D00520D56168E06A884270
:1007800000D80846411B05D02246284600F072FAE0
:10079000002845D10298002804D0E5620020656059
:1007A000A06055E0681CE0626060E069401EA060E7
:1007B000E0683843E06030462E70FEBD02980028A5
:1007C00001D03A4009E06068411C61600670E06851
:1007D00038430A2EE06006D00022E16A6068814258
:1007E00003D90B4602E00122F7E70346A7895B1B0A
:1007F0007F0504D4E7699F4201DD002A1ED08142B3
:1008000000D801460F1A0020E5626560002BA06049
:1008100009DD22461946284600F02CFA002802D0AD
:100820000020C043FEBD002F08D0A069E5626560CE
:10083000C01BA061E06810210843E0600298002816
:1008400009D06168A069E562491B40186560A06134
:100850000120C043FEBD3046FEBD000082100000F6
:100860000000010070B5C468A50713D0650211D45B
:10087000D51FF93D0AD0FF3D6D1E07D0FF3DFF3D5E
:10088000022D07D101462431012305E0074E5D1EEC
:10089000B54201D3012070BD0161C36141600F21E8
:1008A00009028C431443C460002070BDFFFFFF00A9
:1008B000F7B516460C460098002843D0104600F0C5
:1008C0006FF82078611C61280AD0722802D077283E
:1008D00039D102E00125002404E00225042401E0CE
:1008E0002D4D08240222032301270878491C2B28B8
:1008F00006D0622807D02039C87F742807D008E0C6
:100900001D431443F1E7042005433C43EDE7102069
:1009100004430098214600F075F8411C13D00021D3
:10092000316171600121F5604902F1617061200758
:1009300004D530460222002100F018F9306D38430A
:1009400030653046FEBD0020FEBDF8B50D460646BA
:10095000124C206DC10704D0410804D04408640043
:10096000F7E7224610E0542000F0CEF8070010D040
:100970007908206D49000122114308435421206564
:100980003846FFF7C1FC3A4629463046FFF790FF4C
:10099000F8BD0020F8BD0000028000001800002013
:1009A000F8B504460026476900690090E568A80785
:1009B00017D0204600F08FF9384600F02DF80028B7
:1009C00000DA761E280502D50098FFF72AFE4C2192
:1009D0002046FFF799FC206D400840002065304616
:1009E000F8BD0020C043F8BD10B50446C046C0465F
:1009F0002046FFF7CEFB10BD10B500F0BDF900F0AA
:100A0000B5F910BD0EB50191009000F037FA0290D3
:100A100069460120ABBE0EBD08B5694600900220B4
:100A2000ABBE08BD1FB56B4607C369460520ABBE0C
:100A300004B010BD1FB56C460FC469460620ABBE9E
:100A4000F6E708B5694600900920ABBE08BD1CB5A5
:100A500000900A2001916946ABBE1CBD704708B5E5
:100A6000694600900C20ABBE08BD000000487047EE
:100A700014010020004870471C0100207047704797
:100A80007047704738B504460A4600206946C0469C
:100A9000C046002805D002462046009900F093F990
:100AA000012038BD10B5012000F0E2F910BDF8B505
:100AB000C046C046054600200C460C20C0460646EF
:100AC000A819A0420DD9324669460020C046C0464A
:100AD000070001D100F0CCF90098A04200D00546F3
:100AE000C419FFF7C7FFF61D07460560F008C000F0
:100AF0004619284600F061F9B44204D031463868FE
:100B0000A21B00F060F9F8BD70B50646FFF7B2FF12
:100B1000056830460B30C408E400B44201D8002018
:100B200070BD68682A46002818D00168A14211D318
:100B30000B46214608318B4208D3436801194B60AC
:100B400003681B1B0B605160046001E04168516049
:100B5000001D70BD024640680028E6D121462846A7
:100B6000FFF790FF0028DCD170BD0000F8B5044607
:100B700016460D464769007B800730D03846FFF7A0
:100B800060FF00282BD132461026002A25D0012AEA
:100B900002D0022A23D104E0204600F02EF94519A4
:100BA0001BE03846FFF75BFFE16831430028E16056
:100BB00004DA204600F054F80120F8BDC9030BD533
:100BC0006268E16A914200D81146A26989182269D7
:100BD000891A814200DD08462D18002D01DA022015
:100BE000F8BDE16A6068E268814206D29103E06282
:100BF00003D5012149048A433243A669AE4211DC80
:100C0000E16A814201D90B4600E003469F1923693E
:100C1000FF1AAF4206DD814201D90F4600E00746C8
:100C20009F4206D1202002430020A060A5622060E0
:100C30000DE0AD1BE669AE1B8142A66000D90846F7
:100C4000C01A281A20605819606020208243034887
:100C500002400020E26040342072F8BDBFCFD7FFD1
:100C6000C1688022114392039143C16000218160D9
:100C700001607047F7B515460C4682B05069009088
:100C80003748D768074209D0A9690098FFF7DFFE07
:100C9000002815DB3248C0430740EF60314EB442B4
:100CA00000D826463B46324602990098FFF7BAFE26
:100CB0004200A9695208B21A89180028A96106D011
:100CC0002846FFF7CDFF0020C04305B0F0BDA41BB0
:100CD000E4D10020F9E770B504460569C06A61688F
:100CE000884200D80846E1680522D2049143E160B9
:100CF000C90314D5A84209D02246411B2846FFF754
:100D0000B9FF002802D00020C04370BDE56200207A
:100D10006560A060E068012109048843E06000206C
:100D200070BD10B50446C06820218843E060A16A08
:100D3000A06988420ED02046FFF7CDFFE06803216E
:100D40000903884310210843E060A06AA06120697C
:100D5000E06260600449E0680840E06010BD0000A7
:100D600010000200FFFFFF7FBFBFFFFF10B500288C
:100D700001D000F01BF810BD10B5014602A000F034
:100D80005DF8012010BD00005349475254524544BC
:100D90003A2052656469726563743A2063616E2714
:100DA00074206F70656E3A20000000000149182021
:100DB000ABBEFEE7260002007047002101604160E3
:100DC00070470C20704710B50346406801E00346A9
:100DD0004068002801D08842F9D31868C3188B42B4
:100DE00006D0CB1CD808C000001D411A521A01467B
:100DF000081D0A60FFF715FC10BD10B50146C2685A
:100E0000900703D0900607D5886A0AE000F05EF8E4
:100E100001210160881E10BD8B694868C0180B69EC
:100E2000C01A40310B7A002B02D0497A401A10BD0B
:100E30001103FCD50028FADD401E10BD70B5054633
:100E40000C460A2000E06D1C00F03AF8002D06D098
:100E500028780028F7D102E0641C00F031F8002C5B
:100E600002D020780028F7D10A2000F029F870BDC0
:100E700010B500F02FF8FFF779FF10BD30B5441C16
:100E800003E00178401C00290DD08107F9D10B4BFC
:100E9000DD0104C8D11A91432940FAD0001B0A068B
:100EA00003D0C01E30BD001B30BD0A0401D0801E1F
:100EB00030BD0902FCD0401E30BD0000010101011F
:100EC00008B5694608700320ABBE08BD00487047EE
:100ED0001401002010B5012805D0002103A0FFF760
:100EE000ADFF012010BD09A1F8E7000053494752AA
:100EF000544D454D3A204F7574206F6620686561EA
:100F000070206D656D6F7279000000003A204865B1
:100F10006170206D656D6F727920636F727275708C
:100F200074656400F0B589B001900A68002A00D1A8
:100F3000B5E00D465B48019B834201D0052000E0EF
:100F400004201721C9065918890A9B0559180091D0
:100F5000042900D3009000231C461F4607950AE091
:100F6000114331607F1C2A681046F8401B1DA41CE9
:100F7000002800D193E001260396BE403240F1D014
:100F80000292069303200146A140C9436A681546B0
:100F900005406B1E012B059213D8049101998868B6
:100FA000049B1840079BDB68A34003438B60D0067B
:100FB000C00FB8404B68B3430E46049903437360B7
:100FC00006E0032D019E03D10546069B029A20E010
:100FD000F0680840079B9B68A3400343F360022D21
:100FE000069B029A15D11C20184004910F218140C4
:100FF000FB089B00F3181D6A8D43079E31698140F1
:10100000294319620499069B7068019E0325059087
:101010000540A540306808402843306005988003AB
:10102000800F079D9ED04E490868039D28430860A5
:101030000868284008900C2018400F2181400323A5
:101040003D469D43089B194EAB598B430099814007
:101050001943A951079D144EB1686868C3020BD5A6
:101060001143B160F16883020BD49143F160716860
:1010700083030BD491430AE09143B160F16883028A
:10108000F3D51143F16071688303F3D51143069BD7
:1010900071603168C00300D562E7914361E709B030
:1010A000F0BDC046001000480004014008000140A7
:1010B000002A02D0182281507047282281507047A0
:1010C000054800687047C0461A48007802490A6817
:1010D000101808607047C0467801002080B5854828
:1010E000016810220A430260032000F005F800F0B6
:1010F00023F8002080BDC04670B504467D20C000A6
:101100000C4E317800F0DEFC01468448006800F0A7
:10111000D9FC00F059FB0125032C08D8002806D182
:101120000025E84321462A4600F01CF87460284652
:1011300070BDC0460C00002082B009480168012241
:101140001143016001681140019101991107426842
:101150000A434260406808400090009802B070471F
:1011600018100240002805D40322034693430A4A7C
:101170009A1803E00C220240064BD2188007C00EDA
:101180008901C9B28140FF23834010689843084316
:101190001060704714ED00E000E400E0F0B581B0AD
:1011A000002846D00446534A1368012003408B426E
:1011B00008D213680126B3430B4313601268324010
:1011C0008A4237D1009121688A074B4B10D54A07D4
:1011D00006D5072212021B681343474A1360464B89
:1011E0001A68F0239A43A3681343434A1360424B9F
:1011F000C90722D13F49086801263040009A904231
:1012000005D90868B04308600868C00712D1207883
:10121000400706D50720000219688143E0680843AB
:1012200018601A681007810F3548022912D2044647
:1012300050E00126304601B0F0BD616803290DD0B1
:101240001A1F02290FD0012912D1126892030646F3
:10125000F0D511E0032926D12A4C3BE01A6B92030A
:101260000646E7D508E0126892010646E2D503E09B
:10127000126892070646DDD518680326B043084376
:101280001860FFF71DFF07461C4D1B4B18680C210B
:101290000140606880008142ACD0FFF711FFC01BA5
:1012A000A842F2D9C6E70321CB031349896A0F2468
:1012B0000C401549095D94021A40240F134D2C5D12
:1012C0009A4202D033049A4200E00E4800F0FAFB42
:1012D0004443094B18680006000F0D49085CC440E0
:1012E0000E4804600320FFF707FF0026304601B0D8
:1012F000F0BDC046002002400410024088130000E8
:1013000000127A00006CDC021C1D00080C1D000895
:10131000FC1C0008014800687047C046140000200B
:10132000F0B587B004460120002C00D145E20490BE
:101330002078C007F94E05940CD071680C2001404C
:10134000042900D090E03068800303D5606800284D
:1013500000D120E12078800721D570680007800F38
:101360000ED070680C210140082900D09DE00320B8
:10137000C003716801400120C003814200D094E0A5
:1013800030688007059C03D5E068012800D002E1A1
:101390003068F82188432169C90001433160059C08
:1013A0002078000724D42078400737D42078C0065E
:1013B00000D4D3E005984069411D00D1C2E0012866
:1013C00000D030E1706B042101437163706B012127
:1013D00001437163FFF774FE0546706B800700D50B
:1013E000B4E0FFF76DFE411B03200229F5D9E4E1CB
:1013F000706AE169002900D181E00121084370622F
:10140000FFF75EFE0546706A8007CCD4FFF758FEF2
:10141000401B0228F7D9032007B0F0BD012003903C
:101420000107F0690840029006D1F0690843F061B5
:10143000F0690840069006980191E14F3868C005B0
:101440004AD403980402386820433860FFF738FE16
:101450000546386820423FD1FFF732FE401B642822
:10146000F7D9032007B0F0BD71680140082908D101
:101470000320C0037168014001200004814200D1B3
:1014800061E7616801204704002900D117E10529BF
:1014900000D12BE1012900D12CE1010432688A43FB
:1014A000326081043068884327E13068059CE16838
:1014B000002936D0012108433060FFF701FE0546C0
:1014C0003068800700D563E7FFF7FAFD401B02286C
:1014D000F6D9032007B0F0BD05988068002800D138
:1014E000B6E0052800D1C9E0012800D1CAE0306A81
:1014F000039988433062306A04218843C5E00121A2
:1015000088437062FFF7DCFD0546706A800700D4EF
:1015100049E7FFF7D5FD401B0228F6D9032007B0A5
:10152000F0BD012188433060FFF7CAFD05463068F1
:10153000800700D433E7FFF7C3FD411B03200229D6
:10154000F5D93AE1706B042188437063706BF82120
:10155000884305998969C90001437163059800783A
:1015600080060BD571680C2001400C2939D1706BB5
:10157000800303D50598006A01280CD10598446AB8
:10158000002C00D1E1E070680C210140082905D150
:10159000012C00D0C4E0049807B0F0BD0120020681
:1015A00031680492914331604706FFF789FD054693
:1015B000022C0BD1049C3068384200D1DEE0FFF7EA
:1015C0007FFD411B03200229F5D9F6E0306838423F
:1015D00000D1BAE0FFF774FD411B03200229F5D9C1
:1015E000EBE071680140082905D10320C003716850
:1015F00001408142BBD0706B0599096A002900D176
:10160000A9E001210A04104370634C04FFF758FD60
:101610000546706B2042B1D1FFF752FD411B0320FC
:101620000229F6D9C9E0706B042101437163706B24
:10163000012188437063FFF743FD0546706B800707
:101640008CD5FFF73DFD411B03200229F6D9B4E0FC
:10165000306A039988433062306A042188433062DB
:10166000584CFFF72DFD0546306A80071DD5FFF762
:1016700027FD411B0320A142F6D99EE0306A0421D8
:1016800001433162306A0399084330624D4CFFF7E1
:1016900017FD0546306A800707D4FFF711FD401B90
:1016A000A042F7D9032007B0F0BD02980028059C9E
:1016B00000D07BE6F06901998843F06176E6010489
:1016C00032688A4332608004316881433160FFF7B9
:1016D000F7FC0546059C3068384200D13AE6FFF732
:1016E000EFFC411B03206429F5D966E081043268D0
:1016F0000A4332600104306808433060FFF7E0FCC1
:1017000005463068384200D024E6FFF7D9FC401B7C
:101710006428F6D9032007B0F0BDC046001002408F
:101720000320C20370680240F16A059CA36A9A42D2
:10173000049D0DD10F221140236B994208D19104D1
:101740000840E16A8842284637D1002007B0F0BD42
:10175000284607B0F0BD01210A04904370634C0491
:10176000FFF7AEFC0546706B204200D106E7FFF79D
:10177000A7FC411B03200229F5D91EE0F06A0F21C6
:101780008843059A116B0143F1627B20C0037168A5
:101790008143D06A0843916A0143716030682043F5
:1017A0003060FFF78DFC044630683842CDD1FFF73A
:1017B00087FC011B03200229F6D907B0F0BDC04603
:1017C0000070004088130000401E010E01D001206F
:1017D00070470749074A5060074803680B400321D8
:1017E0008907591801600020906007211160704737
:1017F000FFFFFF0010E000E020ED00E0FEE7FEE765
:101800007047704780B5FFF75FFC80BD7047704739
:1018100006480168090608D40168090605D401686C
:10182000090602D401680906F3D570471C48004038
:1018300096B0FFF753FC09AD281D3021FEF764FD7B
:1018400000241294102004900D9001260C9602277B
:1018500009972846FFF764FD002803D0EFF31080B6
:1018600072B6FEE702970894079406940720059045
:1018700005A82146FFF792FC002803D0EFF3108063
:1018800072B6FEE77004834A116801431160F004E8
:101890001168014311607102506803910843506060
:1018A000710790680191084390607B4809A90A4636
:1018B00018C818C2354658C858C2784C2046FFF799
:1018C00031FB2068032108432060E0688843E06022
:1018D000734E7068049908437060706808218843EB
:1018E0007060680371680143716070686D4F3840C3
:1018F00070602C46A802316A014331623068C0072B
:1019000003D030680299084330603068C00708D0BF
:101910003068C00705D03068C00702D03068C00703
:10192000F3D170682146A0437060E007316801433D
:1019300031603068002808D53068002805D5306847
:10194000002802D530680028F3D4304608380168F2
:10195000C907224602D00168114301603168114372
:1019600031600168C90708D10168C90705D101685C
:10197000C90702D10168C907F3D0306804210143C7
:1019800031604948FEF728FCA004424A91680143AF
:10199000916011680143116005214A0543480368BD
:1019A00013430360090502688A43026041683940B5
:1019B000416081683E4A11408160C1681140C16048
:1019C00011218902426A0A434262FFF7A3FCE12126
:1019D000490200F077F83749C86008680C220243D2
:1019E0000A600868204308600868202202430A60F1
:1019F00031480199016020020490304F039D274C2B
:101A000005E040210122254C2046FFF751FB2648E6
:101A1000FEF7E2FBB16B3846FEF7DEFBB06BFEF77C
:101A2000A4FC27490860B16B3846FEF7D5FB0F20B0
:101A3000810100222046FFF73BFBB06B002802D05B
:101A4000B06B4228DDD3B06B422804D3B06B83283F
:101A500001D28021D6E7B06B832803D3B06BFB287B
:101A60000499CFD3B06BFA282946CBD84021012561
:101A70000A4C20462A46FFF71BFB802120462A46B7
:101A8000FFF716FB204604992A46039DFFF710FB3B
:101A90002946B7E714100240E81C00080008004877
:101AA00008240140FFF3FFFF3A1D0008000400482E
:101AB000FFFF0FFF0048004000E100E02C1D000880
:101AC0007401002043088B421AD3002203098B4281
:101AD00079D3030A8B425ED3030B8B4242D3030CB0
:101AE0008B4227D30902FF2212BA030C8B4202D386
:101AF0001212090203D0030B8B4233D31AE0D3E056
:101B0000411A8041401C704703460B4371D443087F
:101B10008B42F5D3002203098B4254D3030A8B4234
:101B200039D3030B8B421DD3030C8B4202D3944653
:101B30006EE0090AC30B8B4201D3CB03C01A52419A
:101B4000830B8B4201D38B03C01A5241430B8B4250
:101B500001D34B03C01A5241030B8B4201D30B0339
:101B6000C01A5241C30A8B4201D3CB02C01A524160
:101B7000830A8B4201D38B02C01A5241430A8B4223
:101B800001D34B02C01A5241030A8B4201D30B020C
:101B9000C01A5241CDD2C3098B4201D3CB01C01A26
:101BA000524183098B4201D38B01C01A5241430930
:101BB0008B4201D34B01C01A524103098B4201D31E
:101BC0000B01C01A5241C3088B4201D3CB00C01A8B
:101BD000524183088B4201D38B00C01A5241430803
:101BE0008B4201D34B00C01A5241411A524110009E
:101BF0007047CA0F00D04942031000D340425340FF
:101C000000229C4603098B422DD3030A8B4212D338
:101C10008901FC2212BA030A8B420CD3890192116A
:101C20008B4208D3890192118B4204D3890137D0AA
:101C3000921100E08909C3098B4201D3CB01C01A7C
:101C4000524183098B4201D38B01C01A524143098F
:101C50008B4201D34B01C01A524103098B4201D37D
:101C60000B01C01A5241C3088B4201D3CB00C01AEA
:101C7000524183088B4201D38B00C01A5241D9D202
:101C800043088B4201D34B00C01A5241411A00D283
:101C900001465241104663465B1000D340427047F4
:101CA00063465B1000D3404201B50021004201D0E1
:101CB000C9430846C046C04602BD10B58A68002A1E
:101CC00003DC0022FEF7D4FC10BD521E8A604A6875
:101CD000C0B2531C4B60107010BD3A7474003A745B
:101CE00074003A7474000000C0030000010000009A
:101CF00000000000000000000000000000000000E4
:101D0000000000000102030406070809020304059D
:101D1000060708090A0B0C0D0E0F10100102030430
:101D200005060708090A0B0C0D0E0F10414443313C
:101D30002D3E44523A2025640A0048656C6C6F20A1
:101D40006B69642066726F6D20536F757468204BE9
:101D50006F65726100000000781D0008000000201F
:101D6000180000001C010008901D00081800002049
:101D7000680700003C0100080000000000000000AF
:101D800000000000010000000400000000127A00C2
:04000005080000C12E
:00000001FF
